:020000041000EA
:1000000000B5324B212058609868022188439860DF
:10001000D860186158612E4B002199600221596106
:100020000121F02299502B49196001219960352056
:1000300000F044F80222904214D00621196600F024
:1000400034F8196E01211966002018661A6600F04E
:100050002CF8196E196E196E052000F02FF8012189
:100060000842F9D1002199601B49196000215960AB
:100070001A491B48016001219960EB211966A021F2
:10008000196600F012F800219960164914480160C1
:100090000121996001BC002800D000471248134993
:1000A000086003C880F30888084703B5996A0420EC
:1000B0000142FBD001200142F8D103BD02B5186610
:1000C0001866FFF7F2FF186E186E02BD00000240BE
:1000D000000000180000070000035F00212200005C
:1000E000F4000018222000A00001001008ED00E03C
:1000F00000000000000000000000000074B24E7A12
:1001000000200420F7010010CB010010CD010010E9
:10011000C9010010C9010010C9010010C901001077
:10012000C9010010C9010010C9010010CF01001061
:10013000C9010010C9010010D1010010D301001045
:10014000C1010010C1010010C1010010C101001067
:10015000C1010010C1010010C1010010C101001057
:10016000C1010010C1010010C1010010C101001047
:10017000C1010010C1010010C1010010C101001037
:10018000C1010010C1010010C1010010C101001027
:10019000C1010010C1010010C1010010C101001017
:1001A000C1010010C1010010C1010010C101001007
:1001B000C1010010C1010010C1010010C1010010F7
:1001C000EFF30580103800BE00BE00BE00BE00BECA
:1001D00000BE00BEF2EB8871F457001024580010E6
:1001E0003802001090A31AE71E481F49086006C88D
:1001F00081F3088810471D480068002801D019487D
:10020000F3E70DA40ECC002902D000F012F8F9E7B4
:100210001749184A002000E001C19142FCD116495B
:100220008847164988471649884700BEFDE701C937
:1002300001C29A42FBD3704724580010C00000202E
:10024000F011002054690010000004200000042078
:100250005469001000100420001004200000000069
:10026000704700000000000008ED00E0000000D032
:10027000F0110020D4350020C12900100503001022
:10028000B9290010F8B5C04610B5064C2378002BEC
:1002900007D1054B002B02D0044800E000BF01232A
:1002A000237010BD70150020000000006454001081
:1002B000044B10B5002B03D00349044800E000BFF5
:1002C00010BDC046000000007415002064540010EA
:1002D00070B5040000200D0003F008FE002800D1D6
:1002E00070BD2A002100002003F0B8FE002003F0BA
:1002F00077FEF5E710B5002900D110BD00F090F9A8
:10030000FBE7C04630B5C1B004F0B8FB00210020C7
:1003100004F088F804F0F2FB00F082F9114802F0D2
:10032000B1FC01200021404203F006F8002003F058
:10033000DDFD0028F5D0002003F0F2FD0028F0D00C
:10034000802269460020520003F0FAFD0028E8D020
:1003500068446C4605002078013400F067F9AC422F
:10036000F9D1DEE76454001010B5AA4B84B00293B3
:100370006B4618730002AF236A46C04353730C00E8
:1003800083B2020400D5C5E05B009BB21AB2002A1A
:1003900000DAC7E05B009BB21AB2002A00DAC9E0BB
:1003A0005B009BB21AB2002A00DACBE05B009BB282
:1003B0001AB2002A00DACDE05B009BB21AB2002A22
:1003C00000DACFE05B009BB21AB2002A00DAD1E07B
:1003D0005B009BB21AB25B00002A00DAD3E08E4ABF
:1003E0001BB253409AB2002B00DAD5E053009BB207
:1003F0001AB2002A00DAD7E05B009BB21AB2002AD8
:1004000000DAD9E05B009BB21AB2002A00DADBE026
:100410005B009BB21AB2002A00DADDE05B009BB2FF
:100420001AB2002A00DADFE05B009BB21AB2002A9F
:1004300000DAE1E05B009BB21AB25B00002A00DA4E
:10044000E3E01BB22278120253409AB252001B041E
:100450005BD493B212B2002A51DB5A0093B212B2AB
:10046000002A46DB5A0093B212B2002A3BDB5A0044
:1004700093B212B2002A30DB5A0093B212B2002AB1
:1004800025DB5A0093B212B2002A1ADB5A0093B24B
:1004900012B25B00002A01DA604A53406A469BB2FE
:1004A00013711B0A537102A80621FFF711FF2000E8
:1004B0000121FFF70DFF022101A8FFF709FF04B09A
:1004C00010BD5A00554B53401AB29BB2E1E75A0097
:1004D000524B53401AB29BB2D6E75A004F4B53408F
:1004E0001AB29BB2CBE75A004C4B53401AB29BB2A4
:1004F000C0E75A00494B53401AB29BB2B5E75A00C5
:10050000464B53401AB29BB2AAE7444B53401AB22F
:100510009BB2A0E75A00414B53409BB21AB2002A4B
:1005200000DB37E75A003D4B53409BB21AB2002A1A
:1005300000DB35E75A00394B53409BB21AB2002A10
:1005400000DB33E75A00354B53409BB21AB2002A06
:1005500000DB31E75A00314B53409BB21AB2002AFC
:1005600000DB2FE75A002D4B53409BB21AB2002AF2
:1005700000DB2DE75A00294B53409BB21AB25B00B7
:10058000002A00DB2BE7254A5340234A1BB2534085
:100590009AB2002B00DB29E7204B520053409BB25C
:1005A0001AB2002A00DB27E75A001C4B53409BB2CB
:1005B0001AB2002A00DB25E75A00184B53409BB2C1
:1005C0001AB2002A00DB23E75A00144B53409BB2B7
:1005D0001AB2002A00DB21E75A00104B53409BB2AD
:1005E0001AB2002A00DB1FE75A000C4B53409BB2A3
:1005F0001AB2002A00DB1DE75A00084B53409BB299
:100600001AB25B00002A00DB1BE7044A53401BB20E
:1006100018E7C04655AA010000AFFFFF21100000F7
:100620000022014B1A707047D3350020F0B5D64632
:100630004F464646C0B5C44D82B02B78082B08D82B
:10064000C24A9B00D3589F46924500D11DE100232A
:100650002B7002B0E0BCBA46B146A846F0BDBC4B18
:10066000188008232B70F4E7B94B01021A88114354
:100670001980B84B8A469C461B781A02D24398468A
:1006800093B2120400D51CE15B009BB21AB2002A9F
:1006900000DA11E15B009BB21AB2002A00DA4BE1EA
:1006A0005B009BB21AB2002A00DA40E15B009BB209
:1006B0001AB2002A00DA35E15B009BB21AB2002AB6
:1006C00000DA2AE15B009BB21AB2002A00DA1FE1CD
:1006D0005B009BB21AB25B00002A00DA14E11BB285
:1006E000624652789146120253409AB21B0400D5DA
:1006F00005E153009BB21AB2002A00DAFAE05B006F
:100700009BB21AB2002A00DAEFE05B009BB21AB289
:10071000002A00DAE4E05B009BB21AB2002A00DA99
:10072000D9E05B009BB21AB2002A00DACEE05B008F
:100730009BB21AB2002A00DAB9E05B009BB21AB28F
:100740005B00002A00DAAEE09AB263465F88002FB1
:1007500000D179E700248048804E29E01AB299B28E
:10076000002A31DB4A0093B212B2002A32DB5A006F
:1007700093B212B2002A33DB5A0093B212B2002AAB
:1007800034DB5A0093B212B2002A35DB5A0093B21E
:1007900012B2002A36DB5A0093B212B25B00002A72
:1007A00000DA734001349AB2A3B29F4200D84BE7FB
:1007B000035D1B0253401AB25B00002ACEDA73407D
:1007C0001AB299B2002ACDDA4B0073401AB29BB22A
:1007D000002ACCDA5B0073401AB29BB2002ACBDA53
:1007E0005B0073401AB29BB2002ACADA5B00734006
:1007F0001AB29BB2002AC9DA5B0073401AB29BB2EC
:10080000002AC8DA5B0073401AB29BB2C6E75528CB
:1008100000D01EE701232B701BE7AA2800D190E02F
:10082000552800D013E714E74A4B588003232B7058
:100830000FE7484B010258880843588080231B016A
:10084000984200D903E704232B7002E7414B18704C
:1008500005232B70FDE60021414A3E4B1180587064
:100860005B885A42534106332B70F2E63C490A88B2
:10087000531C9BB20B8037498A1810714A889A42E0
:1008800000D9E6E607232B70E3E60F234A469A4396
:10089000202A6DD066D8002A76D0102A6CD1604606
:1008A00000F086FAD3E62D4A5A4092B24DE75A003C
:1008B0002A4B53409BB242E75A00284B53409BB20D
:1008C000EAE65A00254B53409BB2DFE65A00234B21
:1008D00053409BB22DE75A00204B53409BB222E776
:1008E0005A001E4B53409BB217E75A001B4B534014
:1008F0009BB20CE75A00194B53409BB201E7174BD0
:10090000520053409BB2F6E6144A53401BB2E7E64E
:100910005A00124B53409BB2DCE65A000F4B534037
:100920009BB2D1E65A000D4B53409BB2C6E65A002B
:100930000A4B53409BB2BBE65A00084B53409BB254
:10094000B0E602232B7084E6D335002080540010DB
:10095000CC350020842D0020882D0020211000009F
:10096000CA350020302A07D1604600F07DFB6EE6D4
:10097000604600F0BBFA6AE66B46D91D012340468B
:100980000B70FFF7F1FC62E6604600F04DFB5EE69F
:1009900070B5060084B002A81C005523067136020B
:1009A000F643037055334370230AC37015008470F7
:1009B0004171B3B2320400D5BDE05B009BB21AB204
:1009C000002A00DABFE05B009BB21AB2002A00DA0C
:1009D000C1E05B009BB21AB2002A00DAC3E05B0000
:1009E0009BB21AB2002A00DAC5E05B009BB21AB2D1
:1009F000002A00DAC7E05B009BB21AB2002A00DAD4
:100A0000C9E05B009BB21AB25B00002A00DACBE0BF
:100A10001BB209024B409AB21B0400D5CDE0530033
:100A20009BB21AB2002A00DACFE05B009BB21AB286
:100A3000002A00DAD1E05B009BB21AB2002A00DA89
:100A4000D3E05B009BB21AB2002A00DAD5E05B006B
:100A50009BB21AB2002A00DAD7E05B009BB21AB24E
:100A6000002A00DAD9E05B009BB21AB25B00002AD0
:100A700000DADBE09BB2002C00D1DDE000227B4EEF
:100A80002AE049008BB209B2002931DB5B0099B240
:100A90001BB2002B32DB4B0099B21BB2002B33DBB5
:100AA0004B0099B21BB2002B34DB4B0099B21BB246
:100AB000002B35DB4B0099B21BB2002B36DB4B0011
:100AC00099B21BB24900002B00DA714001328BB29F
:100AD00091B28C4200D8B7E0A95C090259400BB230
:100AE000002BCEDA4B00734019B29BB20029CDDA4D
:100AF000590071400BB289B2002BCCDA4900714029
:100B00000BB289B2002BCBDA490071400BB289B22B
:100B1000002BCADA490071400BB289B2002BC9DA46
:100B2000490071400BB289B2002BC8DA490071400C
:100B30000BB289B2C6E75A004C4B53409BB21AB273
:100B4000002A00DB3FE75A00484B53409BB21AB2E1
:100B5000002A00DB3DE75A00444B53409BB21AB2D7
:100B6000002A00DB3BE75A00404B53409BB21AB2CD
:100B7000002A00DB39E75A003C4B53409BB21AB2C3
:100B8000002A00DB37E75A00384B53409BB21AB2B9
:100B9000002A00DB35E75A00344B53409BB21AB2AF
:100BA0005B00002A00DB33E7304A090253401BB2E6
:100BB0004B409AB21B0400D431E72C4B52005340F7
:100BC0009BB21AB2002A00DB2FE75A00274B534092
:100BD0009BB21AB2002A00DB2DE75A00234B534088
:100BE0009BB21AB2002A00DB2BE75A001F4B53407E
:100BF0009BB21AB2002A00DB29E75A001B4B534074
:100C00009BB21AB2002A00DB27E75A00174B534069
:100C10009BB21AB2002A00DB25E75A00134B53405F
:100C20009BB21AB25B00002A00DB23E70F494B405E
:100C30009BB2002C00D021E701AE33701B0A0621C5
:100C40007370FFF745FB0AE001AE33701B0A062103
:100C50007370FFF73DFB21002800FFF739FB0221ED
:100C60003000FFF735FB04B070BDC0462110000016
:100C700000B5474B85B002936B4618730002A02362
:100C80006A46C043537383B25B00020401D5414AF4
:100C900053409BB21AB25B00002A01DA3D4A53402E
:100CA0009BB21AB25B00002A01DA3A4A53409BB267
:100CB0001AB25B00002A01DA364A53409BB21AB2DC
:100CC0005B00002A01DA334A53409BB21AB25B0040
:100CD000002A01DA2F4A53409BB21AB25B00002A65
:100CE00001DA2C4A53409BB21AB25B00002A46DB61
:100CF0001BB2294A5A4093B25B00002A01DA254A06
:100D000053409BB21AB25B00002A01DA214A5340D9
:100D10009BB21AB25B00002A01DA1E4A53409BB212
:100D20001AB25B00002A01DA1A4A53409BB21AB287
:100D30005B00002A01DA174A53409BB21AB25B00EB
:100D4000002A01DA134A53409BB21AB25B00002A10
:100D500001DA104A53409BB21AB25B00002A12DB40
:100D60009BB26A4613711B0A537102A80621FFF752
:100D7000AFFA022101A8FFF7ABFA05B000BD054AA2
:100D800053401BB2B5E7034A53409BB2E9E7C04664
:100D900055AA00002110000000A0FFFF00B583B09D
:100DA0006B46D97107331900FFF7DEFA03B000BDB7
:100DB00070B54B4C4378A5440400122B3FD01ED88D
:100DC000102B52D0112B48D1464B1868002800D167
:100DD0007CE080216388C9005A1E92B28A4200D307
:100DE0006FE0211D02AA03F075FF002800D072E019
:100DF000A2216388207802AAFFF7CAFD31E0132BF5
:100E00002BD1384D2B68002B60D09F2301930023FA
:100E100000211120029303F0B5FE02AA042301A9C8
:100E2000286803F057FF0121112003F0ABFE0922CF
:100E30000323A22120786A44FFF7AAFD11E043882A
:100E4000002B3ED0017911204B425941C9B203F029
:100E500099FE2078FFF70CFF03E001212078FFF7CF
:100E60009DFF8123DB009D4470BD4388042B28D95E
:100E7000C38882881B0402AD1343017A6B601A4B4E
:100E800000226B81F023174E5B4230682A70297272
:100E90006A72AB81002801D003F002FF2900300004
:100EA00003F084FE002811D100220121113003F04B
:100EB0003BFE0121112003F065FE2078FFF7D8FEEC
:100EC000CFE702212078FFF769FFCAE710212078D9
:100ED000FFF764FFC5E711212078FFF75FFFC0E748
:100EE000F8FBFFFFB83500201213000030B54A4C64
:100EF0004378A5440400222B35D01DD8202B5AD08E
:100F0000212B51D1454B1868002800D175E063882A
:100F1000012B00D86CE0642501950025013B217967
:100F20009BB2621D009503F035FF00285CD02121A3
:100F30002078FFF733FF3BE0232B35D1374B186880
:100F400000285AD000238022039304A903AB03F0A6
:100F500051FF002856D1039BA22120789BB204AAFE
:100F6000FFF716FD24E02D4B1868002845D0638854
:100F7000022B3DD9A57963792D021D438023DB0027
:100F80009D4235D86423019300232179009304AA5C
:100F90002B0003F017FF002839D12B00A221207865
:100FA00004AAFFF7F5FC03E001212078FFF7F6FE25
:100FB0001B4B9D4430BD4388032B19D9C3888288BD
:100FC0001B04134369460022144D0A7428680593D4
:100FD000144B0B83002801D003F0D0FE280004A995
:100FE00003F098FE002808D12078FFF741FEDFE7E4
:100FF00002212078FFF7D2FEDAE720212078FFF7E0
:10100000CDFED5E723212078FFF7C8FED0E72221C7
:101010002078FFF7C3FECBE7ECFBFFFF5C2D002041
:10102000140400000405000010B543780078032B79
:1010300007D00F2B11D0012B09D00121FFF7AEFEF5
:1010400010BD1323A221074AFFF7A2FCF8E70023F3
:1010500000220221FFF79CFCF2E7FFF709FE03F0F4
:101060005BFDC046A454001010B54378040082B064
:10107000312B09D0322B16D0302B1CD00121007817
:10108000FFF78CFE02B010BD4388002B0ED0007914
:1010900003F082FD6B46A221DA1D10700123207837
:1010A000FFF776FCEEE74388022B0FD80221207869
:1010B000FFF774FEE6E74388012BF7D94179007901
:1010C00003F060FD2078FFF7D3FDDBE782794179FB
:1010D000007903F029FD2078FFF7CAFDD2E7C0466A
:1010E000004870474055001000487047F454001005
:1010F00070B5002826D0042831D81A4B8000C65875
:10110000300004F0EBF8C0B2011C1F2815D8C9B29A
:10111000002821D00023144DAA1CF05C0133DCB25E
:1011200010800232A142F8D8C0230131C9B249006F
:101130009B0019432800298070BD1F21C9B20028D7
:10114000E8D109E0084D074B02221968A81C01F0FC
:101150000BFCC1218900EDE70449034DEAE70020BB
:10116000EAE7C04608110020B02600200203000074
:1011700010B54024084A83009A181268C0005440F1
:10118000C0222240054CA44663441A60044B9C468E
:101190006044416010BDC04604C0014004D001401D
:1011A000004001400B4B80009C46604400290ED15A
:1011B00000230431002A00D1190080220368520163
:1011C000594094460C2360440B40036070470C2147
:1011D0000823EFE704C001400123D02283404021CF
:1011E000120693629361094A83009A181268C0003C
:1011F0005140C0220A4006498C4663441A60054BA0
:101200009C460523604443607047C04604C00140CB
:1012100004D00140004001408023DB051868000F26
:101220007047C0460FB400B5084883B001F02AFDEE
:10123000049B002B07D005A91800019101F0A2FB27
:10124000034801F01FFD012001F0B4FB54550010CC
:101250006455001070B5EFF3108C72B60D4D2B680D
:10126000002BFCD0BFF35F8F0724CB08C618C05CEF
:1012700001230C40A3401C000440034207D1034358
:101280003370BFF35F8F2C608CF3108870BD10003B
:10129000FFF7C8FF2C0100D0F8B54746CE46884678
:1012A00080B5EFF3108C72B6214D2C68002CFCD069
:1012B000BFF35F8F9A422CD8D4080727055D061923
:1012C00001241740BC402C421FD00721012789462A
:1012D00009E0D408055D06194C4639001440A140C8
:1012E0000C00294211D001329342F2D20120404237
:1012F000BFF35F8F00220E4B1A608CF3108800281A
:101300000FDBC0BCB946B046F8BD2C4310003470AA
:10131000EEE7BFF35F8F00232B608CF31088012072
:1013200040424346002BECD00898FFF77BFFC046B5
:101330002C0100D030B5EFF3108C72B60A4C236844
:10134000002BFCD0BFF35F8F07230122CD0819408B
:101350008A40435D93434355BFF35F8F002323606F
:101360008CF3108830BDC0462C0100D0044A1078A0
:10137000431CDBB2172B00D9102313707047C046F3
:101380001C11002000B5054B83B00100009318220A
:101390001F230348FFF780FF03B000BD685500100E
:1013A000202900200021044B044ABFF35F8F02C3B1
:1013B0009342FAD17047C046000100D0800100D0AE
:1013C000054B064A1360064A136053609360D3606E
:1013D00013615361936170478080808000E400E076
:1013E00004E400E01F2318401E3B8340002905D081
:1013F000C021044A490053501360704780220149BC
:101400008B50FAE700E100E070B50D00EFF31086B5
:1014100072B60F4A1368002BFCD0BFF35F8F0D4BE1
:1014200010309B6884001B590B4A934203D09D42A5
:1014300001D001F067F8074B9B681D51BFF35F8F28
:10144000BFF35F8F0022024B1A6086F3108870BDD5
:10145000240100D000ED00E0C1010010F0B55746B6
:101460004E46DE464546E0B585B0060002911700BF
:10147000EFF3108B72B6674A1368002BFCD0BFF3F2
:101480005F8F0025644B5D579A46002D00DAA4E07B
:101490006B00624C03935B199B009846A146C144C4
:1014A0004B4652469B79103613705D4BB2009B68D9
:1014B000019299580B1B2F2B34D95A4B994200D0CB
:1014C000A4E0039B584A9C46584B6544AD006353C7
:1014D000434602336519E418554B0121043B1B1B9D
:1014E0001B055B0D13436B80524BEF71AB80FF23E9
:1014F000AB71029BAB604B460B431900484B019A02
:101500009B689950BFF35F8FBFF35F8F0022414B01
:101510001A608BF3108805B0F0BCBB46B246A946F2
:10152000A046F0BD01200A008243D379BB422FD8E8
:1015300045464E46130040491B1B5B415943090D6C
:101540003A4B63533A4B02356519043B5B1B1B0551
:10155000354D5B0D2B4373800426B446E044444470
:10156000131F1B1B4C46A17102991B05A160494624
:101570005B0D2B43A380314BE77101431360BDE743
:101580005800C01880002018C679BE422BD902002E
:101590000623D356002BF3DA101D824628488046D6
:1015A00004267642B446E14450464E46361A30058B
:1015B000400D824656461C48957106439680039A14
:1015C000944665441D4AAD00641922604246A371E9
:1015D000029BA280E771A36090E700F093FF0025D3
:1015E00053465D5754E7101D82469088400500150C
:1015F00084464046D444664604302018301AE0261B
:101600000005400D360230438046C9E700F07AFFFE
:1016100057E7C046240100D0D23500202011002019
:1016200000ED00E0C101001000E0FFFF00A1FFFF9E
:101630005011002001BDFFFFAAAA00000148804709
:1016400001BD0000F0B5DE4657464E464546E0B5C2
:101650000C0083B0EFF3108972B65F4A1368002B59
:10166000FCD0BFF35F8F5D4B9A68030010339F007F
:10167000D5595B4A904695423DD0A5424ED0594E31
:10168000AA1B2F2A37D8584A93461268944601223B
:1016900061469246824011401F22104052468240CD
:1016A000924601918022514658468150BFF35F8F88
:1016B000EFF305829346002A32D101232A009A4390
:1016C0009068844208D17CE04B005B189B00F318C3
:1016D000986884422ED01A00062151560029F3DA68
:1016E00084424DD0019B002B1FD0C02251463E4B5F
:1016F000520099501960394B9B68DD51BFF35F8FE1
:10170000BFF35F8F0022344B1A6089F3108803B057
:10171000F0BCBB46B246A946A046F0BD1500EAE7BC
:101720009342CAD000F0EEFEC7E7802351462E4A0E
:10173000D150E0E706215956002922DB4A00501813
:10174000800034188046A0689860E079D87106203F
:1017500020569871002825DBA488F01A640524150A
:1017600044440019E0240005400D240220439880E1
:1017700052181E4B9200B6181A781970B271B1E760
:101780001300594600290FD1FF31917118499180FA
:1017900016490A789A71174A9B1B5B415A43120DEE
:1017A0000A709FE71448E2E7144A1549D21A083A2A
:1017B0005002400D01439980124952080A43DA80D1
:1017C00090E70621515613000029B7DA5A46002A3D
:1017D000EAD14546DCE7C046240100D000ED00E038
:1017E000C10100102011002000E100E0D2350020EE
:1017F00001BDFFFFAAAA000001BD00005A11002090
:1018000000F0FFFF00F8FFFF70B501240443EFF381
:101810000581EFF3108C72B6214A1368002BFCD0BF
:10182000BFF35F8F1F4B05001F4AED1A6D416A43DE
:10183000120D1E4D8900AE6852B27658A6421CD0D9
:101840000621595691421CD012215956914222D05C
:101850001E215956914220D02A21595603249142E3
:1018600010D0134B19781A708171BFF35F8F00226B
:101870000B4B1A608CF3108870BDAB680D4C5C503C
:10188000EFE700246100091989005B18FF219971B5
:1018900009499980E5E70124F4E70224F2E7C0460C
:1018A000240100D020110020AAAA000000ED00E0D1
:1018B000D2350020C101001001BDFFFF024B9C4644
:1018C000614489000160704740000034F8B5134D51
:1018D000134E2C00FF27B5421ED22368002B0FD0D9
:1018E000FFF744FD01002800FFF7E8FFA780BFF3E2
:1018F0005F8F0834B4420FD223682500002BEFD14C
:10190000FFF734FD01002800FFF7D8FF2771BFF370
:101910005F8F0834B442EFD3F8BDC046E811002011
:10192000F011002010B50400FFF720FD0100200099
:10193000FFF7C4FFFF232371BFF35F8F10BDC046C5
:1019400010B504000120FFF71DFD044B9C466044C8
:1019500080002060BFF35F8F10BDC04640000034A0
:101960000A4B1968EFF3108072B60A68002AFCD09F
:10197000BFF35F8F1B68BFF35F8F00221A6080F395
:10198000108840BF002000217047C046B4350020B9
:10199000F0B5DE4657464E464546E0B585B0EFF316
:1019A0000582032313409A0011000392B64A52584D
:1019B000904601229A409146B44B1A604B46B44877
:1019C0004363434608229B5E9A46002B3DDA43461A
:1019D0009B881BB2002B00DBA1E043469B79002BC8
:1019E00000D0F3E0434608241C5F002C23DB424672
:1019F0005269630094461B19DB0063449C68DD68F0
:101A0000631C00D10FE1A248039984466144826AB5
:101A10000B69A61A9B1A9E4215D34A46036A1A42BC
:101A200011D09B4800F0C4FA241A8D41002D02DC2D
:101A3000C4D1002CC2D040BF05B0F0BCBB46B246FA
:101A4000A946A046F0BD0C61EBE7424652695B0037
:101A500093465344DB009B445B469E68DF6800F07E
:101A6000A7FA801BB9410029B1DB002F00DAE5E0BD
:101A70005B46884A1B69934200D1D8E041465A46EA
:101A80000820085E5288000410435A46516998475E
:101A900004000D0023002B4300D1CFE0002D00DB1C
:101AA000E8E0361BAF4134003D005B469C60DD60E2
:101AB0000021595E002900DA89E743465B6922006C
:101AC0009C462B0048004018C00060448668C768E8
:101AD000921BBB41002B00DA79E7434666460200C1
:101AE0000094019519810CE07B00DB19DB00F318F1
:101AF000009801999C68DD68001BA941002904DB5E
:101B00001A000023D75E002FEEDA5B461F80534693
:101B1000138043469B881BB2002B00DA5DE74346E7
:101B20001A69EFF3108172B61368002BFCD0BFF373
:101B30005F8F43469B8842461BB29A4601235B4215
:101B400093801369BFF35F8F00221A6081F31088BE
:101B50005346002B00DA40E743465B699C46082366
:101B600043449B4653465F0043465744FF000822C8
:101B70009A5E67445E46BC68FD68002A19DB3B003C
:101B80000094019567469C4604E01E000023F25E27
:101B9000002A0BDB0098019953009B18DB00FB180F
:101BA0009C68DD68001BA9410029EEDA6346BC464B
:101BB0001F005346338000217B5E3A809A46002BFB
:101BC000D0DA43469B79002B00D10BE70023424635
:101BD0009371434646460821595E08364B1C00D196
:101BE00029E747468C46556902E006004B1C17D092
:101BF0004B005B18DB00E8180A00E95E43881BB263
:101C0000002BF2DA01235B42DC178360C46062457B
:101C1000ECD031803B89944603803A814B1CE7D15C
:101C2000B8466446E1E66B1C00D0ECE6F9E65B469C
:101C30005C69200023699847002821D15B46424611
:101C40001B8813811269EFF3108372B611680029A3
:101C5000FCD0BFF35F8F4246594652880A80424605
:101C6000514651801269BFF35F8F0021116083F3E9
:101C70001088ACE6064800F09BF924184D4114E7A3
:101C80006568246806E7C0466C2D00203C7005405E
:101C9000004005409119001070B52E4C2569002DAB
:101CA00004D00A212C48FFF709FE70BD2B4E0321FA
:101CB000300000F073F9E660FFF758FB284B032271
:101CC0009C46D02322701B061B6801216370254BA4
:101CD0006044A3600F238000206102206380636959
:101CE0004942A18019800231198647311D8358521B
:101CF00018315A5275325C39995218320131995261
:101D0000183201319952183201319952083518327E
:101D10009D520231183299521832013199521832BB
:101D200001319952183201319952183201319952C8
:101D30001832013199520C4B0C49DC60013035628C
:101D4000FFF762FB01210320FFF74CFB084B1D60EE
:101D5000A7E7C04668110020B435002000400540C8
:101D600040000034FFFF10006C2D0020911900107E
:101D70003860054070B5C646010000B50469EFF350
:101D8000108C72B620680028FCD0BFF35F8F022051
:101D90000D5E48696C0080466419E4004444002DDF
:101DA00001DB208848800869BFF35F8F002606604A
:101DB0008CF31088002D30DBE360638805980133D5
:101DC00020615B0406985B0CA26060611A1C002B0A
:101DD00021D090B22B04628018430A69EFF3108679
:101DE00072B61368002BFCD0BFF35F8F8B88238003
:101DF0008D800B69BFF35F8F00221A6086F3108815
:101E00000B7801329A40CB6805498C4663441A60CE
:101E100040BCB04670BD0122DBE701204042F7E73D
:101E20003C20000010B543890A14934233DD53006F
:101E30009B184269DB00944604696344EFF3108CFD
:101E400072B62268002AFCD0BFF35F8F5A8809045B
:101E500094B2090C8A4208D00369BFF35F8F002255
:101E60001A608CF31088002010BD802212021443E7
:101E70005C80012302698371BFF35F8F00211160D1
:101E80008CF31088054902788C469340C268012083
:101E900062441360E8E70020E6E7C0463C2000000B
:101EA000F0B5CE46474680B504000D0083B0EFF391
:101EB0000587002F0DD0364A0020536A8B4203D38A
:101EC000926A0130A24250D303B0C0BCB946B046BA
:101ED000F0BD304B9846DB689946434648461E782D
:101EE00000F066F80B00494602000436B60071584F
:101EF00020008E1A2900801A99418F4211DC0ED0E1
:101F000020BF234A0020536AAB42DDD3926A0130DE
:101F1000A242D9D2E81A421E9041C0B2D4E786420A
:101F2000EED900F04DF822002B00121A8B41002B45
:101F300020DB00230193184B2200009340462B0026
:101F4000FFF718FF011E15DD114B2E005A6A95424E
:101F50001CD89B6AA34217D34046FFF763FF0C4A85
:101F60000020536A9E42AFD8D0E7581A421E9041D3
:101F7000C0B2A9E7064A0020536AAB42A4D3926AD2
:101F80000120A242A0D2C5E79542E5D120BFE3E7F8
:101F900000400540681100206119001010B5024A88
:101FA0000248FFF757F910BD84550010242900207E
:101FB0000300416A0A00986A596A8A42FAD1704756
:101FC000034B596A0A00986A596A9142FAD17047DC
:101FD0000040054070B504000D00124A536A190014
:101FE000966A536A8B42FAD13000190024184D4189
:101FF000AB4211D80ED02B000A494A6A9A42FCD350
:1020000007D1084A02E0516A994202D1916AA1427D
:10201000F9D370BDA642EED9012301246442E5172D
:102020005B42E9E700400540F8B5040006200D00DA
:1020300000F076F9002842D0364B3749E218534277
:102040005A418023DB039C469205344B62441A605C
:10205000334B1A6010000B689843FBD12D4B802145
:10206000E3185A4253412F4A5B0049009952062017
:1020700000F056F92900C00000F07AFB0130C309D6
:102080001ED1402701226262A362266BF30722D48D
:10209000E36A254B0620E51800232B60266300F039
:1020A0003FF93900800000F063FB7022E36A5A4078
:1020B0007E2313402B601D4B23630323A364F8BDD1
:1020C0001B4A93421ED900231A4A1B4F6262A36225
:1020D000266BF307DCD5194B144AE3181A60656ABE
:1020E000A26A0620AD01AD1800F01AF9144900F0FB
:1020F0003FFBAD020100280000F03AFB0021FFF792
:1021000069FFC5E74006800E9F011A003F180300D3
:10211000B9E7C0460080FCBF08C0004000E00040B6
:1021200000F00040BC3500202C100000010300002E
:10213000FEFF0000FFFF0000C0FF3F003030000046
:102140004E0E0000F8B5DE464E4657464546E0B511
:102150008B4605000A991800160000F009FB0A9B3F
:102160006C001F02324B64199C46A40064446368EF
:1021700081469F4200D967602B1FDBB29846012B36
:1021800030D9C02380229B01E31812011A60294B29
:10219000AD0059599A4600291BD122687601724038
:1021A000E0268023164042465B01E3181E60012AA8
:1021B00030D9802380229B01E31812011A60534614
:1021C0004A4667605A51F0BCBB46B246A946A04693
:1021D000F8BD586900F0CCFA431C5800C018033809
:1021E000FDD2DAE75B46012BCBD1C02303229B0152
:1021F000E3181A60023AA3681A42FCD0E02322686E
:10220000760156401E4080230A4A5B019246E3183D
:102210001E60AD005A462168514003220A401A60F0
:1022200001225B469A40A3681A42FCD0C1E7C0462F
:102230000080004028290020F0B546464F46D6468B
:10224000C0B51F00344B44009C462418A4006444CD
:10225000636888461600FF2B02D880235B0063600A
:10226000031FDBB29A46012B30D9C02380229B0189
:10227000E31812011A60294B850059599946002923
:102280001BD1226876017240E02680231640524618
:102290005B01E3181E60012A30D9802380229B0154
:1022A000E31812011A6080235B0063604B465F51A4
:1022B000E0BCBA46B146A846F0BD586900F058FAED
:1022C000431C5800C0180338FDD2DAE74346012BFF
:1022D000CBD1C02303229B01E3181A60023AA36802
:1022E0001A42FCD0E0232268760156401E4080232B
:1022F0000A4A5B019146E3181E6085004246216848
:10230000514003220A401A60012342469340A268CA
:102310001342FCD0C1E7C0460080004028290020BD
:10232000014B8000C058704728290020F8B50400F0
:1023300020481D0017000E0000F01AFA01003800B6
:1023400000F016FA069B29041B0319432368002B8F
:102350001EDB194B194DE21853425A4180235B0191
:102360009C461203164B62441A60164B1A60170003
:102370002B689F43FBD1144B2660E2182123A060F9
:1023800013602368002BFCDA0823E1601360F8BDBA
:102390003F2322681340B342DBD1A3681B051B0D0A
:1023A0008342D6D1EE22E368D20213408B42D0D1D1
:1023B000EDE7C046001BB7000040FDBF08C000406D
:1023C00000E0004000F000400430000010B51400B0
:1023D00080221B4BD2051A6000281AD00123194A0B
:1023E0001843194BDA61194A42401A6259629862DD
:1023F0008022134BD2051A601549164A1160E0225B
:10240000D2041A60002C07D18022134B12061A60E6
:1024100010BD0D4BD861EBE763011B1B9A008023B5
:10242000121912015B049A4200D30C4A0C4B1A6039
:10243000054B5A608022084BD2051A60E8E7C04677
:1024400000B00540D3C007B0008005402D3FF84FD5
:10245000FCFF01000820014000A00540FFFFFF0035
:10246000642D00208023024A9B000B43D3627047F7
:1024700000800540142310B50100188804331B8820
:10248000984710BD162310B50100188802331B8829
:10249000984710BDF8B54746CE4680B50F1E19D0F7
:1024A00014239946043304000025012698464B4620
:1024B0001888434621681B88984701C4431E9841E9
:1024C000013540420640AF42F1D13000C0BCB946B0
:1024D000B046F8BD0126F8E7AA23064A1B0113609F
:1024E0008D235B00D3600449044B19605368002BB3
:1024F000FCDA70470040024000B0FA000060024081
:102500007047C04610B50148FEF78CFEA855001074
:1025100070B5074D074EB54209D20024013E761B27
:10252000B60808CD984723000134B342F9D170BDF5
:10253000205400105C540010054B064A06491A60EE
:10254000064A074B1A6010000B689843FBD170478E
:1025500000E00040BFCDFBFE08C00040FE7F3C0015
:1025600000F00040044BDB6C002B03D18022034BB6
:10257000D2021A607047C046000011504C20115022
:10258000044A054B1A60054A1368DB018033FBD10E
:102590007047C046FFFFFF0100F0004008C0004048
:1025A0004022034B9A675A671A67DA667047C0463B
:1025B00000F0014010B5FEF7F5FE10BDF8B52D494D
:1025C0002D4C2E4D641AA6103200302E00D9302228
:1025D0002800920000F0C8F9BC2C41D80123711CDE
:1025E00008009C46264A30293DD92F272C1964071C
:1025F000E30FBF1B052F19D9302917D8002B36D070
:10260000B1006A506146CC1AF3189B006108EB18C0
:10261000C900C9181A605A6008338B42FAD10123E5
:102620002100994346188C421AD0711CB300EA501D
:10263000302915D089006A50B31C2E2E10D09B0073
:10264000EA50F31C2D2E0BD09B00EA50331D2C2E8C
:1026500006D09B00EA50731D2B2E01D09B00EA5040
:10266000084B9D60F8BD2F339B1B9C46BDE7300097
:10267000C8E7C04600010010C001001000000020A3
:10268000C101001000ED00E0002310B5294C82B01C
:10269000A367FFF721FF0122274B1A60636C012B10
:1026A000FCD10322254B1A60224A936B012BFCD1EB
:1026B000013300930121224A22480433FFF736FEFA
:1026C000052301210093204A2048FFF72FFE002216
:1026D000022104201E4BFFF7AFFD0022012105203F
:1026E0001C4BFFF7A9FD0022002107201A4BFFF722
:1026F000A3FD002200210820174BFFF79DFD80233A
:10270000DB000093002200210920134BFFF71AFD84
:102710000022104B00210620FFF78EFD0420FFF75A
:10272000FFFD0E4900F024F801000020FFF79AFE9B
:1027300002B010BD008000403CB0004030B000400E
:10274000002F685900800240008C864700C002407C
:10275000001BB70040597307006CDC0240420F00B9
:1027600001480421014B18478011002095240010D6
:10277000114A936F9B0813D210665166002905D049
:10278000FFE7FFE7FFE7516F106F704704B50028C0
:1027900001D00020C04302F0EBFD002104BDC04683
:1027A000F0B5146E556E576F166FFFF7E5FF1466A0
:1027B000556657671667F0BD000000D0132370B54B
:1027C0001D78012D19D014DD1E48FFF75BFE0600B1
:1027D0001D48FFF757FE1D4C80223100200000F0FD
:1027E000C3F8022D06D01A48FFF744FE194B1860B3
:1027F00070BD164C184BA364F5E7174B134C2360C0
:102800006360A360E36023616361A361E3612362AA
:102810006362A362E36223636363A363E36323648A
:102820006364A364E36423656365A365E36523666A
:102830006366A366E36623676367A367E367A364CE
:10284000D1E7C046534400005346000070130020F7
:102850004C330000B03500205D28001007B56046FD
:1028600001880A0A0230DF2AFAD1C9B2820804D3E9
:10287000028840880004104300E00068014A50507C
:10288000039007BD7013002051434343C9188C4681
:10289000110C83B24B4310B4040C614392B280B26A
:1028A000504362431C041B0C001910BC5941130413
:1028B000120CC0185141614470470000132310B539
:1028C00012481C78FFF7DEFD0100012C0AD003DD61
:1028D00080220F4800F048F80E48FFF7CBFD0E4B62
:1028E000186010BD0A4C5422200000F03DF80B4B3C
:1028F0006365A365E36523666366A366E366236792
:102900006367A367E3672362E361E5E7534600007B
:10291000701400204C330000B03500202129001035
:1029200007B5604601880A0A0230DF2AFAD1C9B227
:10293000820804D3028840880004104300E0006845
:10294000014A5050039007BD701400200148042133
:10295000014B18479011002095240010014B1B6873
:102960001847000090110020014B5B6818470000D9
:102970009011002010B5002800D110BD00F036F9EC
:10298000FBE7C04610B5094A0300146884B0002C68
:1029900008D0012200910648524203A9A047012015
:1029A00004B010BD00F06EF90020F9E7602D0020A2
:1029B0007529001000BEFDE710B5FFF7FBFFC0460C
:1029C00070B5FFF7A5FD074D074EB54209D20024AB
:1029D000013E761BB60808CD984723000134B34268
:1029E000F9D170BD5C54001064540010030010B5A0
:1029F000080011001B68984710BDC046F0B5464658
:102A00004F46D646C0B5437D80460E001700002BCA
:102A100046D0002A3FDD4B1E9946244B0125002459
:102A200000209A460DE04B461B5D0D3B5A42534138
:102A3000325DDBB20A2A0BD02B00013401359F42F4
:102A40001ADD002CEFD14346325D1B7D0A2AF3D1FB
:102A5000002BF1D1A04204DA4346211A1B6830183A
:102A60009847434650461B68022198470134280086
:102A70002B0001359F42E4DC874204DD4346391ACE
:102A80001B6830189847F619013E33780D3B5A42BF
:102A9000534142461375E0BCBA46B146A846F0BD64
:102AA0000368110030009847F5E7C0464C56001007
:102AB000F0B5DE4657464E464546E0B585B01700B0
:102AC0001C0006000D00FFF77BFA0023314A1218A4
:102AD0004B41002B59DB304908008A4602F068FC64
:102AE00001906B1C03D1300002F0F8FB0500002CB4
:102AF00026D12A4B98462A4B1C68002C15D0002F53
:102B000021D1284F02E02469002C0ED02368002B2D
:102B1000F9D03B68002B01D0A342F4D120002A0059
:102B20003100C0472469002CF0D1019B002B28D133
:102B3000280005B0F0BCBB46B246A946A046F0BD91
:102B4000194B9846D7E7174B994602ABDF1D0A236E
:102B50009B4602E02469002CE7D02368002BF9D0C3
:102B60004B461B68002B01D0A342F3D12A00310051
:102B70002000C0475B460122390020003B70C0475F
:102B8000E8E7504602F0ECFBD2E70122074B524245
:102B9000A1E7C04640420F00E8110020ED290010D7
:102BA0005029002058290020FD290010FFFFFF7F39
:102BB0000A4A1368002B05D10CE01A001B69103279
:102BC000002B07D09842F8D1002902D10369136085
:102BD000016170470029FCD01060FAE750290020FD
:102BE00010B500F037F9012010BDC046F0B5CE4653
:102BF000474680B583B06B460600DD1D2870FFF7A1
:102C0000DFF900231A4A12184B41002B2BDB19491C
:102C10000800884602F0CCFB174B81461C68002C4C
:102C200014D0164F02E02469002C0FD02368002B2B
:102C3000F9D03B68002B01D0A342F4D1200001223F
:102C40002900FFF7DBFE2469002CEFD14B46002B57
:102C500005D1300003B0C0BCB946B046F0BD404617
:102C600002F07EFBF5E70122054B5242CFE7C0465A
:102C700040420F00E8110020502900205829002070
:102C8000FFFFFF7F70B5040002F028FB0123010065
:102C9000050001222000FFF70BFF084B1C68002CE9
:102CA00006D06368002B05D098472469002CF8D122
:102CB000280070BD2469002CF3D1F9E750290020C9
:102CC000F0B50D1E15DD0E4B0D271A680D4B45197D
:102CD000D31859424B410C495B005E5E20210478B9
:102CE000A64207D093691942FCD101301460A84272
:102CF000F5D1F0BD93691942FCD11760F2E7C046E7
:102D0000C43500200080FCBFBC35002030B5040075
:102D10000D1E24DD002010211A4B013C1A68936916
:102D2000194217D1013093691942FCD11368235419
:102D30008542F4D1144B1B68002B0AD050239363B7
:102D4000516B183B0B4011498C46624413600028BC
:102D500014D030BD0C4B1B68002BEFD1F7E70A4BAA
:102D60001B68002B0AD05022064B1B689A63596BD4
:102D7000183A0A4005498C4663441A6003204042D1
:102D8000E7E7C046C43500201829002034100000B1
:102D9000064B10B51B68002B06D00021044A1268B0
:102DA0009163044A1068984710BDC0461829002056
:102DB000C43500201C2900200822034B19688B69A8
:102DC0001A42FCD17047C046C435002070B51B4E76
:102DD0001B4B32680500D3185842434114331C0082
:102DE000002D04D0174B1A68002A11D070BD154E63
:102DF0003368002BFAD0002120009563FEF7F2FA29
:102E000020001149FEF71EFC104B35601D60EDE7F8
:102E10001D600E4B200019600B49FEF7F5FA0121E9
:102E20002000FEF7DFFA502233689A63596B183A94
:102E30000A4007498C4663441A60D7E7C43500202E
:102E40000080FCBF18290020912D00101C290020B3
:102E5000341000000D4B10B51B780D4B0D4C1B783A
:102E60000D4B02211B780D4B00202360FEF780F9EB
:102E700002210120FEF77CF9E12120684902FFF7D9
:102E8000D3F801210648FFF793FE10BD1858001033
:102E90001C580010C435002020580010004003408A
:102EA000A011002070B50C4E0D001C003060002AEF
:102EB00003DB02211000FEF75BF9002C03DB02218B
:102EC0002000FEF755F929003068FFF7ADF8012121
:102ED0000248FFF76DFE70BDC4350020A011002030
:102EE000F8B500F045F90C23194DFF22AB6705201A
:102EF0001849FEF7B3FA184C402200212000FFF7D2
:102F00002DFD4027002301262121144A66702783C6
:102F1000A260136063545F31618445396354104A81
:102F200010496360E2602787A1620B606362E2621E
:102F300002F04EFA80239B052E64EB6490230A4A2C
:102F40000120EA508022094B5202DA64F8BDC046E3
:102F500000001150690300205C29002084001050FB
:102F6000000110508000105010D0010000201150BE
:102F700010B501210520FEF735FA10BD10B500226D
:102F80000021024800F014F910BDC0467C29002041
:102F9000044B1970002904D080219023024A890231
:102FA000D1507047CF350020002011500B785B06C0
:102FB00002D14B78052B00D070478A78014B1A60FC
:102FC000FAE7C04600001150F0B5C646C87800B513
:102FD0008007830F1800012B61D08F780C794B7913
:102FE0007F211B02394023434E00FC09334D321927
:102FF0005201AA18977001276740577000275B0598
:103000005B0DD7701383D076B846CA00012C32D03E
:103010002B4FBC468F016244BC46AC446746BA6045
:1030200047461760002932D0264AC90090466246BA
:10303000414451603F223F339343022838D0224914
:1030400037190A687F01D3180B602049EF19FA601D
:103050008B422FD8341964012D19EB7E1C499B0635
:103060004A40134380220120120613436A6813600A
:1030700080BCB846F0BD174FBC468F016244BC46C9
:10308000AC446746BA6247461760002909D100235D
:1030900064012D196B60104B0120EB60E8E7002004
:1030A000E6E70B4AC9009046624641445162C1E7D7
:1030B0005B00C4E7FFF726FAFA68CBE75C2900203B
:1030C0008400105004001050682D0020FF0F105095
:1030D00000001050800010500001105010B502F098
:1030E00077F910BD10B57F200C0020404000E409A6
:1030F000110000191A00034B4001C01800F058F8E5
:10310000012010BD5C2900207F22130010B50B4068
:103110000A420BD0C90980225800401806494001D4
:1031200040181201002102F06BF910BD0222034881
:10313000C909521A8266EEE75C290020002011506E
:103140007F22100010B508400A4200D110BD0023B4
:10315000C9094000401804494001081800220349E9
:10316000C37002F04DF9F1E75C290020FFF7FFFF83
:1031700080220A4B520410B51A60094B09491A60A3
:1031800010000B689843FBD18022002152010648B1
:10319000FFF7E4FB0922054B5A6710BD00E0004031
:1031A00000F0004008C00040000010500000115026
:1031B00070B5837E04000D001600002B17D100238C
:1031C000E38201332000A682A376256102F010F984
:1031D000002804D080219023084A8902D150200081
:1031E00002F016F9002805D00123237770BD02F004
:1031F000F7F8E4E7200002F0E3F8F7E700201150C9
:10320000002070477047C0467047C0460020704796
:1032100000207047002070477047C0467047C04686
:103220007047C0467047C046024B5878431E9841CD
:10323000C0B27047FC260020024B18784007C00F30
:103240007047C046FC260020F0B546464F46D6469D
:10325000C0B52E4B814698461B780E000124FF2BEB
:1032600040D100293DD0002154222948FFF776FBA8
:103270000022284C284B20001A70FEF753FB274BE6
:103280001C60274C20001430FEF75AFB200001F090
:10329000B1FB244B244D1C60244B002B04D0280090
:1032A00000E000BF224B1860224A002492462B788F
:1032B0001F4F0EE03A68630194466344002B10D020
:1032C0005B68002B0DD0984701342B78E4B2A34201
:1032D0000ED39C42EED3E31A5B0153445B68002B90
:1032E000F1D100242000E0BCBA46B146A846F0BDAA
:1032F00043464A46310048461A70FFF7F1FD041E66
:10330000EFD04846FFF734FEECE7C046D41100206A
:10331000FC260020F4260020D03500205027002075
:10332000B811002054270020CE35002000000000F6
:103330008C1500209C570010F0B5DE4657464E46CF
:103340004546E0B5BC4B8BB01B78FF2B00D127E185
:10335000BA4BBB4D9A4607AC2E687269EFF31081E9
:1033600072B61368002BFCD0BFF35F8FB1613000E1
:10337000210001F081F97269B369BFF35F8F002109
:10338000116083F31088002800D109E16378082BCD
:10339000E2D852469B00D3589F466368002BDBD08F
:1033A000A0689847D8E77F232179A64E0B405800A4
:1033B000CA093618B6183200012730321079B843DE
:1033C000107110790337B8431071002B00D1F0E071
:1033D0009D4A337D1278934200D3DFE09B4A5B0124
:1033E0001268D318002B00D1DAE09E696279207848
:1033F000A368B047B0E7964A1378002B00D1CFE01E
:103400001378013BDBB213701378002BA4D1012297
:103410008C4B01211B788B4813438A4A894E1370C9
:103420003423D25C8A43C254C25C04208243F254E7
:103430000133F25C8A43F254F25C8243F254237803
:1034400000209B4600F08CFC602223791A40602A01
:103450000DD0402A00D1B4E0DB06DB0E012B00D1F9
:10346000FEE0022B00D1C6E0002B00D1B5E02078B1
:103470000021FFF749FE80212078FFF745FE6BE72A
:10348000704E3378DB0700D466E7FFF7CBFE63E7C7
:103490006C4BDB78DB0700D45EE76068FFF7B4FEB7
:1034A0005AE7684E3378DB0700D455E730780007D9
:1034B000C00FFFF7B5FE4FE7664A634E2378934689
:1034C000624A984691463200337800274646904635
:1034D0000FE04A4612687B0194466344002B66D095
:1034E000DB6830009847434601371B78FFB2BB4288
:1034F0003ED39F42EDD3FB1A5B015B44F0E7554A94
:10350000514E23789346514A98469146320033787B
:103510000027464690460FE04A4612687B019446D3
:103520006344002B1FD0DB683000984743460137C7
:103530001B78FFB2BB4205D3BB42EDD8FB1A5B013F
:103540005B44F0E73F4E542200213000FFF706FABB
:103550001022FF21301DFFF701FA30002022FF2149
:103560001430FFF7FBF900F0F1FBFFF757FEF3E62D
:10357000344E542200213000FFF7F0F91022FF21D1
:10358000301DFFF7EBF930002022FF211430FFF748
:10359000E5F900F0DBFB2379B370DDE693420ED052
:1035A0000BB0F0BCBB46B246A946A046F0BD254EC6
:1035B000EFE762792078A36800F0E6FBCCE6254BC4
:1035C00013E7254800F0CCFB0121584608AAFFF775
:1035D00017FE002800D0BFE649E7202A00D13FE1CE
:1035E000002A00D043E76379092B00D93FE71B4A43
:1035F0009B00D3589F467023217A0B4200D036E7B8
:103600007F26CB0998460E400E4B76009B1943440B
:103610001F7D0D4B1B789F4253D300D03CE10D4FD3
:10362000002A00D13CE1786900F09AFB012158465C
:103630007B6908AA9847CCE7D4110020F456001003
:1036400054270020FC260020CE3500208C150020B9
:10365000D03500209C570010013200101857001080
:10366000237A0F2B00D902E7CF4A9446CF4A63440E
:103670001B79127893422FD300D0F8E6CC4E7069B4
:1036800000F06EFB01215846736908AA984700288C
:1036900000D061E66022160023791E401A4200D055
:1036A000E5E663790A3B012B00D9E0E600F058FB20
:1036B00063790A2B00D148E1584608A900F0D0FAF6
:1036C0004AE6BC4B7F011B68DF19002A00D1E7E006
:1036D000002F00D1CBE6A6E7B64A5B011668F618C4
:1036E000002E00D1C3E6CAE7AF4BA7795B789F42B3
:1036F000E2D0AD4B5B78002B00D061E1AA4B5F704C
:10370000002F00D14DE1781EC0B2FDF7EDFC00287E
:1037100000D142E143780493022B00D03DE1012126
:10372000C279931152110B400A4012015B011343FD
:103730009D4A2F3112788A4313439B4A1370092301
:103740009946C37882781B021343C3180293994B9E
:10375000814498464F46029BBB4200D8FEE00122BE
:103760007B7801920B2B04D1FB7801933B78FF18F7
:103770007B78042B00D010E1029BB946DB1B9BB287
:1037800003938A4B1E7800231F0019E042461268FB
:103790007B01D618002E00D1FFE049465846039A17
:1037A000336998470590082803D9039A824200D3C9
:1037B000D7E07E4B01371E78FFB2BE4200D2ECE06C
:1037C000BE42E3D87A4BBE1B9C4676016644E4E7D2
:1037D000754B06AA5B78023213705846012308A97C
:1037E00000F056FAB8E5E088030AC0B20F2B00D902
:1037F0003DE671499A008A58974608A800F0B6FA43
:103800005846A179FFF7BAFB0222674B1B78134396
:10381000654A1370A0E5E388012B00D027E6082253
:10382000614B1B789343604A137045E702205E4B5F
:10383000197806AB9A1C8B068908DB0F01400B43F5
:1038400013805846022308A900F022FA84E5E38891
:10385000012B00D00BE60822534B1B781343E2E701
:10386000237A0F2B00D902E64F4A944663441E790F
:103870004E4B1B789E4227D24E4A73011668F618AB
:10388000002E00D1F3E5706900F06AFA0121584674
:10389000736908AA98479CE60027002A00D0E6E54D
:1038A0000222637999469343012B12D04B46002B99
:1038B00000D0DCE53C4B06AA9B19434430331B790E
:1038C00002329B07DB0FBBE79E4200D0CFE5384EAC
:1038D000D9E7E388002B12D14B46012B24D0374B7C
:1038E0001878FFF711FC02212F4B9B19434430330A
:1038F0001A790A4301211A711A790A431A71002FA1
:1039000000D129E5786900F02BFA7B6908AA01212A
:1039100058469847002000F023FA3523224AD35C0A
:10392000DB0700D518E5C7E6244B1878FFF708FC3D
:1039300002211D4B9B19434430331A798A4349466F
:103940001A711A798A431A71D9E706AB9A1C58463C
:10395000012308A9167000F09BF9FDE4FFF75CFC59
:10396000AAE63B004F469946019B012B00D185E01A
:10397000019B002B73D000234E46B97805E01671E9
:103980000133019ADBB2934268D20748CA188446D1
:10399000D2B262441079FF28F1D00023024A53705A
:1039A00065E5FFF73BFC87E6FC260020CE350020CE
:1039B0009C5700108C15002040570010D411002097
:1039C00000215846FFF7E4FA5846FFF787FB00222C
:1039D000424E9046424A434B914632009B780193B7
:1039E0003378464690460FE04A4612687301944683
:1039F0006344002B20D0DB68584698474346013685
:103A00001B78F6B2B34207D3B342EDD8364AF31A65
:103A100094465B016344EEE7542200213148FEF7EF
:103A20009DFF304B1022FF21181DFEF797FF20222B
:103A3000FF212E48FEF792FF2A4B019A9A705DE60D
:103A4000FFF7E4FB021E00D111E5D37891781B0249
:103A50000B43584608A900F01BF9BAE5B146059E8C
:103A60004B4639003200214800F080FDB4461B4B24
:103A700067441B784B4500D36DE68EE71C4B3269DB
:103A80009A4200D077E7049B019374E7FFF7C0FBED
:103A9000021E00D1EBE45846137808A900F0F8F8AC
:103AA00097E52189FDF724FB021EF4D1DFE4022B08
:103AB0000FD0FFF7AFFB021EC7D1D8E4FDF710FB14
:103AC000021E00D1D3E41223584608A900F0E0F802
:103AD0007FE5FDF709FB021EB7D1C8E4CE35002013
:103AE0008C150020FC2600209C5700101027002079
:103AF00099410010F8B557464E46DE4645460C0043
:103B0000E0B516001F00002A3CD0702398461E4BDB
:103B100000259B461D4B9A461AE05B461B78200009
:103B200099465346997800F0E5FC00281CD0210006
:103B30004846FFF749FA002816D0A378DA09012A87
:103B400019D00A9A013513702378E418B54219DAAE
:103B50006378052B08D1E3789B079B0FBB4203D109
:103B60004246A3781A42D8D00020F0BCBB46B246E9
:103B7000A946A046F8BD0B9A013513702378E418C6
:103B8000B542E5DB0120F0E7D4110020FC2600203F
:103B9000702270B58B780C001A4201D0002070BDE5
:103BA000064B20001D78064B997800F0A3FC0028F6
:103BB000F4D021002800FFF707FAF0E7D411002025
:103BC000FC260020074B080019687F2310B503402E
:103BD000C0095B0034301818034B181800F046FC7D
:103BE00010BDC04650270020FC260020074B0800CF
:103BF00019687F2310B50340C0095B0034301818E2
:103C0000034B181800F05AFC10BDC0465027002086
:103C1000FC2600207F2070B508400F4C4000CD09E5
:103C200024186419303425790020ED0700D570BDC3
:103C3000012625790948354300782571FFF752FAA6
:103C40000028F4D10122237993432371237903328D
:103C500093432371EBE7C046FC260020D4110020DB
:103C600070B50A4E0500300008220C00FEF77CFEFD
:103C700000237F21F3602278B36091425B412800EA
:103C8000D90100220023FFF7C5FF70BD9C2600204C
:103C9000F8B5CE46474691462A4E80B50822070021
:103CA00030000D009846FEF75FFE4B46B3600023E0
:103CB000F381EC79A97924020C43231C444500D9F3
:103CC00043469AB29046B381002C13D0002A1FD0ED
:103CD0004B46002B34D0131C402A1FD89BB2984669
:103CE00033787F2B20D80021174A43463800FFF74E
:103CF00091FF09E07F222B7838009A42644100232B
:103D00000022E101FFF786FFC0BCB946B046F8BD0E
:103D100033787F2B11D980210022E6E740239BB224
:103D2000984633787F2BDED9074C4246494620001F
:103D3000FEF71AFE80212200D7E700210022D4E7F7
:103D40000020E1E79C2600205C26002010B514220C
:103D500000210248FEF702FE10BDC0469C2600204E
:103D6000014B18617047C0469C26002010B5054CD9
:103D7000010008222000FEF7F7FD0023A360E360A6
:103D800010BDC0469C260020F8B5394C1D00237894
:103D90000600DA09C9098A4210D00020002D00D09F
:103DA000F8BD21003000FFF701F92369002B42D054
:103DB00022000321300098470120F1E77F2B06D82D
:103DC000A068002839D02A002A49FEF7CDFDA36853
:103DD000E28959195219E38892B2E281A1609342B3
:103DE00014D03F2D12D9A589A81A071C80B24028EB
:103DF0002FD82378BFB27F2B2DD80021AA4235D0EF
:103E00001C4A3B003000FFF705FFC9E72369002B80
:103E100005D0220002213000984700280FD07F22D1
:103E20000021237830009A42494100230022C90131
:103E3000FFF7F0FEB4E70120B2E70020B0E7002171
:103E40003000FFF761F930008021FFF75DF90120B4
:103E5000A6E74027CDE7AA4207D0064C3A0020004B
:103E6000FEF782FD80212200CBE780210022C8E7F7
:103E70009C2600205C26002070B50500FFF7D4F9D1
:103E8000002800D170BDFFF7D7F90028FAD1AB01A7
:103E90005B19DB00134A5B19DB00D618F1780029A7
:103EA000F0D010339C18200000F0D0FB3F28E9D957
:103EB0000020F178FFF786FE0028E3D0200000F014
:103EC000C5FB3F2808D9EA01074D4023F178521974
:103ED0000020FFF79FFED5E7F1780020FFF786FE70
:103EE000D0E7C046141600209015002010B504003D
:103EF000FFF79AF9002801D1002010BDFFF79CF9C7
:103F00000028F9D1A0010019C000044B0019C0001D
:103F10001818037901201840EFE7C0461416002056
:103F2000020083011B1810B5D8008018034BC00095
:103F30001030C01800F06CFB10BDC04614160020F5
:103F4000234BF0B5C646984685012C18E40024188A
:103F5000E400204B1034060000B544449A4200D9D6
:103F60001D4A200092B200F0D7FB0700FFF75CF972
:103F7000002803D1380080BCB846F0BDFFF75CF9DB
:103F80000028F7D1AD19ED00AD19ED004544EB78EF
:103F9000002BEFD0200000F059FB3F28EAD9002089
:103FA000E978FFF70FFE0028E4D0200000F04EFB78
:103FB0003F2808D9F201094E4023E97892190020E0
:103FC000FFF728FED6E7E9780020FFF70FFED1E7DC
:103FD00014160020FEFF0000FFFF000090150020D7
:103FE000F8B50400FFF720F9002801D10020F8BD42
:103FF000FFF722F90028F9D1A5012D19ED002D199F
:10400000ED002E00134F2436F619300000F000FBAF
:104010000028EBD07D190020A978FFF7D3FD0028F8
:10402000E4D00D48E401403424182100300040223F
:1040300000F072FBA978061E08D0030022000020C1
:10404000FFF7E8FD0028D1D03000D0E70020FFF7CF
:10405000CDFDCBE7141600209015002070B584012B
:104060002418E40024180C4BE4002434E4180B4B0F
:1040700005009A4200D90A4A200092B200F006FCDC
:104080000600200000F0C4FA3F2801D8300070BDBF
:104090002800FFF7A5FFF9E714160020FEFF000037
:1040A000FFFF0000F0B500251A4C83B0002120006E
:1040B000194AFEF753FC194B80261D70FF236371CC
:1040C000E1235B02A3602100082320003601A373D3
:1040D000320038310095073B103000F061FA104B88
:1040E0002000E118012332000093243000F058FA38
:1040F0000C4BE7183800FDF715FC82235B01E6182E
:104100003000FDF70FFCE56127622663656303B0AD
:10411000F0BDC04614160020481000001016002004
:104120003808000038100000074B1A6A196B002A83
:1041300002D00022DA611A62002902D000221A633A
:104140005A6301207047C0461416002070B50F4C0A
:10415000052200212000FEF701FC0D4D2B78DA0727
:1041600007D50C4C9B070CD50121200000F062FC08
:1041700070BD2000103000F03DFC2B78054C9B07F3
:10418000F2D4200000F036FCEEE7C0461416002002
:104190001016002038160020F0B54B79060083B0C9
:1041A000022B02D18B79022B03D00025280003B00B
:1041B000F0BD214FBB78002BF7D18B7809253B70E0
:1041C0000C780C196378242B0BD1082A02D80FE045
:1041D000AA420DD32378E418ED186378ADB2242BEE
:1041E000F6D0052B08D0042B02D163790A2B11D00D
:1041F0000020FFF741FED9E721003000FFF7C8FC9F
:104200000028D2D0A3787B702378ED18E418637867
:10421000ADB2E8E7094B27780193013300930222FE
:1042200002233000E119FFF765FC0028BDD00E35F0
:10423000ED19ADB2DCE7C0461416002016160020BA
:10424000F8B5602314001278050013400020202BDD
:1042500007D1304A6379277916781B023B439E4287
:1042600000D0F8BD6378222B28D007D8202B17D098
:10427000212BF6D101293ED00120F2E7232BF0D1EA
:10428000012940D00329F7D1234B002BF4D0E1784A
:10429000A37809020020194300E000BF0120E0E7F5
:1042A000012928D00329E7D11C4B002BE4D0083288
:1042B0000020110000E000BF0120D2E7012922D038
:1042C0000329D9D10125A178E4782E0024020C43DA
:1042D00001211471264024321000714000F0AAFB25
:1042E0000F4B002BC8D06208002031002A40FCF799
:1042F00001F80120B5E7072321002800094AFFF74C
:10430000C7FC0120ADE721002800FFF7A9FC012030
:10431000A7E7C046141600200000000000000000BF
:10432000F50200101C160020F0B54F464646D64652
:10433000C0B5354D8046EA780C001F008A425BD13B
:104340009AB210239A46314EAA443100504600F0EA
:104350009DFA2F4B002B17D06B79FF2B14D0002F19
:1043600012D0F219914603E001364E450CD06B791C
:1043700032789A42F8D1504600F060F90028F3D123
:10438000697900E000BFEFE7224B002B04D0224800
:1043900000F054F9002834D00020FFF76DFDAB7811
:1043A000A34206D001242000E0BCBA46B146A8468C
:1043B000F0BD1A4B002B02D0002000E000BF00200F
:1043C000FFF70EFE0028EDD1154D280000F020F972
:1043D0000028E7D1002FE5D0BB06E3D1243D4046BD
:1043E000A978FFF7EFFB041EDCD000230022404633
:1043F000A978FFF70FFCD6E7AB788B42D9D0002421
:10440000D1E700E000BFC7E7141600209015002098
:104410000000000000000000241600200000000042
:104420003816002000B5030083B0002910D000200A
:10443000012B07D80A78002A04D00B48C254012067
:10444000012A01D003B000BD1800FEF7FDFEF9E718
:10445000012301A900200B80FEF7F6FE0028F1D011
:104460000122014B1A70EDE7F0260020037870B5A9
:10447000DB0704000E00DD0F002B17D103785B076C
:1044800001D5280070BD01213000494200F078FFBD
:104490002378DB07DD0F002B0AD123785B0708D4D4
:1044A0000422237801251343237002E00025E8E766
:1044B0000025300000F054FFE3E7C04670B50D0062
:1044C000012104004942280000F05AFF23785B07CD
:1044D000DE0F002B04DB280000F042FF300070BD2F
:1044E0002378DB0704D40422237893432370F2E774
:1044F0000026F0E710B5437904791B0223435B05DE
:104500005A0DC3789B079B0F022B05D0032B15D0A8
:104510000020012B08D010BD02291CD00020402310
:1045200093424041C0B2F6E702394B4259410D4B2C
:104530009C46614491424041C0B2ECE702394B4293
:104540005941F023002049429B00194040319142DB
:104550004041C0B2DFE7044BD3185A425341D8B2AE
:10456000D9E7C046FF03000000FEFFFF8A1870B5C0
:10457000914207D27F264C78052C04D00C7809197B
:104580008A42F8D870BD34008D782C40640004193C
:10459000ED0963550C7809198A42ECD8F2E7C04658
:1045A000F0B5C64600B5040006A805788020884608
:1045B00017001E000002824227D8E068002803D0BE
:1045C0000121494200F0DCFE2069002803D00121CE
:1045D000494200F0D5FE4346236073045B0CED03B3
:1045E0001D430023E0686381A780E58023810028C4
:1045F00001D000F0B5FE20690124002801D000F0B0
:10460000AFFE200080BCB846F0BD0024F9E7C046EC
:1046100010B5048941898288A3B288B28C4207D33D
:104620001B1A9BB2101C9A4200D9181C80B210BDF4
:104630005100091A5B189BB2F4E7C04603000089D9
:104640005B89C01A43425841C0B2704710B5048913
:1046500041898288A3B288B28C4207D31B1A9BB2CD
:1046600000209A4201D9D31A98B210BD5100091AFC
:104670005B189BB2F4E7C04670B5040000690E00F9
:10468000002803D00121494200F07AFE2589608983
:10469000A288A9B283B285422CD3CD1AADB2002D27
:1046A0002ED0AA4208D2914231D38B1A9BB2638199
:1046B0009A4203D89B1A9BB29A42FBD9E28821689E
:1046C0005204520C53433000C918FEF74DF961896A
:1046D00001254B1C9BB2A288994214D90023520099
:1046E0009B1A9BB220696381002801D000F038FE3C
:1046F000280070BD5500ED1A4D19ADB2002DD0D176
:10470000002563899BB252009342EBDBE8E78918EE
:104710008BB26381CCE7C046F0B546464F46D646DD
:10472000C0B50600006989469046002803D00121E3
:10473000494200F025FE31897289B5888BB294B266
:10474000914257D31F1BBFB2002F4DD0BD4205D29F
:10475000AB4254D25B199CB22F0074814346B845DA
:1047600040D89FB2A54203D8641BA4B2A542FBD98E
:10477000F288281B5204530C190098463368614391
:104780009C4680B26144874226D94346584383B24F
:104790001A0048469A46FEF7E7F8434648467D1B0E
:1047A00064195C4331685044A2B2FEF7DDF87189A8
:1047B000B588CB199BB26A00994217D99B1A9BB254
:1047C00030697381002801D000F0CAFD3800E0BCD8
:1047D000BA46B146A846F0BD424648467A43FEF77F
:1047E000C3F8E4E73B1CBCE773899BB26A009342C1
:1047F000E6DBE3E76F003F1BDF19BFB2A4E75B1BFB
:104800009CB2A9E7F8B50400C0680E00002803D0E8
:104810000121494200F0B4FD258920896189A288DF
:10482000ADB283B28FB2884228D3DB1B9BB29A42CF
:1048300009D8E779FF0906D1E068002801D000F027
:104840008FFD3800F8BD2B00954203D39B1A9BB215
:104850009342FBD2E28821685204520C5343C81899
:104860003100FEF781F8A2886B1C9BB252009D427A
:1048700009D99B1A9BB201272381DDE75100C91B8F
:104880005B189BB2D3E79342F5DBF2E7F0B54E46F7
:104890004546DE465746E0B589460500140083B01C
:1048A000002A6ED0C068002803D00121494200F0E0
:1048B00067FD2F89EA796B89BFB29BB2D20942D1D9
:1048C000AE889F4267D27200D31AFB189BB20022B7
:1048D00090469E4231D9F31A1A1C9BB2A34200D9CA
:1048E000221C93B29846E8884346DB199BB29B464C
:1048F0003C00BE4203D8A41BA4B2B442FBD2400485
:10490000430C18009A462B6860439C46311B89B2C1
:10491000604441454ED35246434649465A43FEF70A
:1049200023F8AB885B00BB4501D39B4503DB5A46AC
:10493000D31A9BB29B465B462B81E868002822D0A5
:1049400000F00EFD1FE0AA889046944226D29F42B6
:1049500044D34146FA1A92B2490012198A4209DB3D
:1049600042469A1892B2171BBFB29346BB423AD93D
:104970007F1ABFB2E3199BB246469B46A046E88821
:10498000B6E700239846404603B0F0BCBB46B246AB
:10499000A946A046F0BDFB1A9BB298E7E888A21A88
:1049A0004404640C54434246A144002AC5D0464600
:1049B0001F0099E75346594389B20A0001914946BD
:1049C000FDF7D2FF43469A1B5346A2185A4301995A
:1049D000286892B24944FDF7C7FFA2E75100CA1AFE
:1049E000BA1892B2B9E7B942C2DD4646E888A04695
:1049F0007EE7C04610B50400C068002803D001213E
:104A0000494200F0BDFC2069002803D00121494241
:104A100000F0B6FC0023E06863812381002801D008
:104A200000F09EFC2069002801D000F099FC0120D4
:104A300010BDC04670B50400C0680D00002803D04A
:104A40000121494200F09CFC2069002803D001218B
:104A5000494200F095FC7F21E379ED011940E068BF
:104A60002943E171002801D000F07AFC2069002878
:104A700001D000F075FC012070BDC04610B51920B2
:104A8000FCF7AAFBD0238022E1211B0692045A6284
:104A90000448054B0022186049020123FEF702FA80
:104AA00010BDC04600400340C035002010B502488C
:104AB00000F004F810BDC0467C2D002030B5002564
:104AC00089B004000922002101A80095FDF746FFE6
:104AD0000922002105A80495FDF740FF4B236A46F3
:104AE0006846137004A90D2200F02AFC1521082243
:104AF00020006944FDF738FF09B030BD10B5FEF75E
:104B00006FF81920FCF768FBD02380221B06920463
:104B100000205A629A6110BD00220021002010B5C9
:104B2000FDF754FC30BFFDE770B504000E00150022
:104B30001D2824D8FCF750FB0123D022A3401206E5
:104B4000012E0BD09362012D0BD0022D10D020002E
:104B500000220021FCF726FB002070BD5362012DCE
:104B6000F3D1200000220121FCF71CFB0020F4E718
:104B7000200001220021FCF715FB0020EDE70520B5
:104B80004042EAE70123D02283401206012901D1E5
:104B9000536170479361FCE70122D02382401B06DA
:104BA0005B6813405A1E9341D8B27047F8B545462A
:104BB000DE4657464E468046E0B50D00002864D0DC
:104BC000002962D00E78012E5FD874427441304FB4
:104BD000304B36019C46BB199A4652466442A40BA0
:104BE000A4036444BC514B7B20001371496800F05E
:104BF00033F90223626828491A4093460122287A31
:104C000061180B60431013401040C0019B01034327
:104C1000072021680343914680224B40CF21520157
:104C20000B40A1180B601D4B01219C465B46644460
:104C30002360A87AFCF79CFA0121E87AFCF798FA3D
:104C4000287B0121FCF794FA687BFF2812D1002011
:104C500000F034FBBE19B060002000F02FFB43468B
:104C60005246F06000201A60F0BCBB46B246A9462E
:104C7000A046F8BDFCF7B0FA4A466B7B9A40130099
:104C8000D022120653625361E1E705204042EBE770
:104C90009035002000000440043000000420000093
:104CA00010B5041E12D0006800F070F9A06800284A
:104CB00001DB00F0FBFAE068002801DB00F0F6FA07
:104CC000012300205B42A360E36010BD0520404249
:104CD000FBE7C04610B5002818D0002B16D00029DD
:104CE0000CD00068002A04D000F05AFB00242000F9
:104CF00010BD1A0000F04CFB0024F8E70024002A45
:104D0000F5D00021006800F023FBF0E705246442A1
:104D1000EDE7C046F8B506000C00002825D00029B4
:104D200023D00D78012D20D8002D1CD01048114F14
:104D3000AD006168E85100F07BFA0321207AFCF7AE
:104D400017FA0321607AFCF713FA00220121207A76
:104D5000FCF728FA607A00220121FCF723FA0020F0
:104D60007D193560F8BD0448E1E705204042F9E7C8
:104D7000E011002088350020D811002010B500284F
:104D800004D0006800F0E4F9002010BD0520404286
:104D9000FBE7C04610B582B004AC247800280DD0E3
:104DA000002A0BD00068009400F06CFA01304342F6
:104DB000584107234042984302B010BD05204042AD
:104DC000FAE7C04610B582B004AC247800280DD0B4
:104DD000002A0BD00068009400F05EFA01304342D4
:104DE000584107234042984302B010BD052040427D
:104DF000FAE7C046F0B5CE46474680B5060089467C
:104E000090461D0085B0002823D0002921D0002D18
:104E10001FD00023082400272B600F22012321002C
:104E2000306800976A4400F037FA002807DB2B68E7
:104E3000434502D24A46D4542B6801332B600134D7
:104E4000E4B2782CE9D1002005B0C0BCB946B04628
:104E5000F0BD05204042F7E7F0B557468246454B86
:104E6000454653445A4253418022DE464E46920202
:104E700094465B42E0B51B0C3F4A1B04634413603D
:104E80003E4A0D003E4985B0136018000A68904301
:104E9000FBD181460620FDF743FA53465A680223A8
:104EA0001A4001925246802104320292354AEF0D97
:104EB00052446E02136003923B0032000224490008
:104EC00006E0904206D3023492197B418C4201D015
:104ED000002BF6D02B0080262702A0463F1B0500A2
:104EE0001C00760003E04346FF1A012E3DD0390036
:104EF0002800B346013EFDF73BFC8442F3D2444612
:104F000059463302A8469946614353464A461C61B6
:104F10001B6880255340FF22120213408022920119
:104F200094466D0155442B60029B019A63441A60BC
:104F3000524650680222039C072622605446246889
:104F400010406640CF2434402C60032418600E4883
:104F50005044046040461A60FDF70AFC05B0F0BCFE
:104F6000BB46B246A946A046F0BD44461900A84635
:104F7000CBE7C0460040FCBF00E0004000F000402E
:104F800008C00040043000002420000002220B4B27
:104F9000C3181A600A4B0132C3181A60094B8022E9
:104FA0009C466044434258419202944643421B0C43
:104FB000054A1B04634413607047C0460430000078
:104FC000243000000040FCBF00E00040F0B54E4639
:104FD0004546DE465746E0B583B0019200221E00EA
:104FE0000CAB1B78050099460368DA6601325960FC
:104FF000DA66002E42DD721E9446494601224A407E
:105000005202904680220020802452009246C03AEC
:10501000596F1029FCD0002827D000278021BB46DB
:105020004900844510D019611959596B0A4211D0B1
:1050300001205B6D40424B462B7103B0F0BCBB4678
:10504000B246A946A046F0BD4746594639435746A1
:105050003943E8E7996F0029E6D01B6901990B54A1
:1050600001308642E7D02B68D2E729790029D4D0D5
:105070008027A021FF00BB46C900D2E70020DAE765
:10508000F0B557464E464546DE4690460022E0B50E
:1050900083B01E000CAB1B7884469A460368DA6620
:1050A00001325960DA66002E4FDD51464A40520205
:1050B00001928022914632008025771E00204646CC
:1050C00010219046AD000024002804D162461479D6
:1050D000621E9441A4020022934687421AD0325C99
:1050E00022435C4622431A615A6B1142FCD04A4665
:1050F0009C58002C11D1874222D001308045E2D14A
:10510000634652461A7103B0F0BCBB46B246A9468C
:10511000A046F0BD019A9346E1E75A6D01229346FD
:105120005A6B2A42FCD01A6E5A46002AE5D0002C4F
:1051300003D0E30701D42307E2D401204042DFE794
:105140005246002AD9D1D346EAE70020D8E7C04624
:10515000054BC01A43425841072340429843034B32
:10516000103018607047C046D811002000E00040A1
:10517000F8B5DE4657464E4645468346E0B505201F
:105180000C00FDF7CDF80600600821008019FDF73E
:10519000EFFA430098468044070005214046FDF79A
:1051A000E7FA3B1A9A461E4B8146700080199C42D2
:1051B00031D81C49FDF7DCFA451C5B461C6800230E
:1051C0000422E366236801205A400623134080220C
:1051D0005201A21813605346E3614B4623624346D3
:1051E0004F2B03D950214046FDF7C2FAA023E050CF
:1051F000E06F0D4B45402D042D0CE3181D6001237D
:1052000039003000E366FDF7B3FAF0BCBB46B246A6
:10521000A946A046F8BD0549FDF7AAFA451CCCE70A
:105220003F420F00809698007C10000040787D017E
:10523000104A70B5821A53425A41072352429A4388
:105240000D4B10321A600D4B0D4C1A60150023687F
:105250009D432B1EFAD166240268FF340571D56682
:105260001460633C8833FF3CD5639563D450FFF7EB
:105270007FFF70BDD811002000E0004000F000402A
:1052800008C0004010B582B004AC24780094FFF749
:10529000F7FE02B010BDC04610B582B004AC247851
:1052A0000094FFF793FE02B010BDC04610B5010098
:1052B0000148FCF73FF810BDC835002000B5054B8C
:1052C00083B00100009300220B230348FBF7E4FFA7
:1052D00003B000BDD4570010C835002010B58307B7
:1052E0000AD00300032102E001330B4205D01A78F3
:1052F000002AF9D1181A10BD030019680C4A0D4C88
:105300008A188A4322420FD15968094A04338A18FD
:105310008A43224208D15968054A04338A188A43CD
:105320002242F1D000E001331A78002AFBD1E1E7F4
:10533000FFFEFEFE80808080F8B5C04600000000C1
:1053400001B40248844601BC604700BF7D0E0020C6
:1053500001B40248844601BC604700BF1110002020
:1053600001B40248844601BC604700BFED01002043
:1053700001B40248844601BC604700BF851000208C
:1053800001B40248844601BC604700BF5D010020B3
:1053900001B40248844601BC604700BFC50F00202D
:1053A00001B40248844601BC604700BF510F002091
:1053B00001B40248844601BC604700BFC100002020
:1053C00001B40248844601BC604700BF210B0020A5
:1053D00001B40248844601BC604700BF15020020AA
:1053E00001B40248844601BC604700BFC50A0020E2
:1053F00001B40248844601BC604700BF690A00202E
:1054000001B40248844601BC604700BFD10A0020B5
:1054100001B40248844601BC604700BF910A0020E5
:105420003925001065250010612700104D29001056
:10543000BD270010BD28001089260010812500100E
:10544000A1250010B5250010CD180010BD250010B5
:10545000991C001001250010C1130010AD4A001066
:04546000B102001085
:10546400554E4950524F472053616153204272694F
:105474006467652053746172746564000E080010DB
:105484001A08001028080010320800104C080010F8
:10549400560800106C0800105E0600106806001024
:1054A400554E4950524F472D4252494447452D7657
:1054B400322E3500556E6950726F676572000000B8
:1054C400556E6950726F67657220427269646765D0
:1054D400000000003132333435360000556E695017
:1054E400726F6765722043444300000009040000A2
:1054F40009024B000201008032080B000202020084
:105504000009040000010202000405240020010532
:105514002401000104240206052406000107058174
:105524000308001009040100020A00000007050234
:105534000240000007058202400000001201000240
:10554400EF0201408A2E0A0000010102030100005B
:105554000A2A2A2A2050414E4943202A2A2A0A008C
:105564000A0000004E6F207370696E6C6F636B737A
:105574002061726520617661696C61626C6500000E
:10558400486172647761726520616C61726D202577
:105594006420616C726561647920636C61696D6516
:1055A4006400000048617264206173736572740062
:1055B40052656C6561736500626F6F74325F773238
:1055C4003571303830000000322E322E30000000A9
:1055D4007069636F00000000756E6970726F675FB9
:1055E40062726964676500004D6172203134203253
:1055F4003032360005005250DE65F46854690010FC
:10560400060052505422A29DEC5500100600525040
:10561400861C0302DC55001006005250BBFF3CB64A
:10562400D455001006005250ABB36053CC55001053
:1056340006005250E182887FBC550010060052508B
:10564400D3F07542B45500100D0A00005541525470
:1056540020737464696E000055415254207374645D
:105664006F7574005541525420737464696E202F11
:10567400207374646F7574000600525053B4F4A11F
:1056840068560010080052501200000008005250E2
:1056940092100000556E68616E646C656420495216
:1056A4005120307825780A00657020253032582042
:1056B40077617320616C72656164792061766169D8
:1056C4006C61626C6500000043616E277420636F37
:1056D4006E74696E75652078666572206F6E2069D8
:1056E4006E616374697665206570202530325800D8
:1056F40058330010B8340010FE34001090340010F9
:10570400A234001080340010F6330010A6330010C9
:105714009A3300102C380010163800106E34001024
:105724004E3800106E340010FA370010E6370010BF
:105734006E340010D0370010E83600106E340010BC
:10574400BC3A0010AE3A0010A23A00106E340010B9
:105754006E3400108C3A0010AE3A00106E34001013
:105764006E3400106E3400106E3400106E3400106D
:105774006E3400106E340010403A0010060C002005
:10578400060C0020E80B00205C0C0020620D0020B9
:10579400760D0020500C002000000000A5400010F1
:1057A400294100104D410010994100104142001060
:1057B40029430010000000004C45440009005250E9
:1057C40000000002BC5700100800525012100200E2
:1057D4004E6F20444D41206368616E6E656C73208A
:1057E40061726520617661696C61626C65000000BC
:1057F400F855001004560010105600101C560010E6
:10580400285600103456001040560010C05700109F
:10581400CC5700107C56001088560010905600108B
:10582400F0B5C646150000B504001E000268EFF38B
:10583400108172B61368002BFCD0BFF35F8F042372
:10584400E356002B2DDB2268BFF35F8F002010602E
:1058540081F31088D0221206127852B290469A42EE
:1058640003D1002080BCB846F0BD00270BE02368BC
:10587400BFF35F8F1F6081F310882800310000F0B0
:10588400EBFF0028EDD12268EFF3108172B61368A4
:10589400002BFCD0BFF35F8F23797F2BE7D94346DE
:1058A40002E0D0231B061B6823712368BFF35F8FBC
:1058B40000221A6081F310880120D3E7F0B5C646B0
:1058C40000B50D00040000F08FFFFA2206000F005F
:1058D400002328000021920000F0AEFF36184F414B
:1058E400002F2CDBD0231B061B68002598460BE0F9
:1058F4002368BFF35F8F1D6081F310883000390087
:1059040000F0AAFF002818D12268EFF3108172B6C4
:105914001368002BFCD0BFF35F8F23797F2BE7D96B
:10592400434623712368BFF35F8F00221A6081F31B
:105934001088012080BCB846F0BD0020FAE701269B
:10594400014F7642CEE7C046FFFFFF7F0268EFF3C8
:10595400108172B61368002BFCD0BFF35F8FFF2356
:1059640003710368BFF35F8F00221A6081F310880C
:1059740040BF704700231C4A10B59360D3601B4A94
:1059840000219360D3601A4A1A489360D3601A4A7C
:105994009360D360194A9360D360194A9360D360CB
:1059A400184A9360D360184A9360D360174A93608F
:1059B400D360174A9360D360164A9360D360164A43
:1059C4009360D360154A9360D360154A9360D360A3
:1059D400144A9360D360F022920000F035FF124B1A
:1059E400124A1A6010BDC046000010500800105042
:1059F400100010509C290020180010502000105056
:105A04002800105030001050380010504000105042
:105A140048001050500010505800105060001050B2
:105A24006800105070001050682D00208001105044
:105A3400F0B54F46D6464646C0B5204B84B09F6D60
:105A4400002F23D01E4B00249A46012399461D4B58
:105A54000126984604E001347600E4B2202C15D0E7
:105A64003E42F8D053469E654B4665086D00A343FD
:105A7400ED186D014544280000F038FC00280BD1D6
:105A84000134B743E4B27600002FE7D104B0E0BCA0
:105A9400BA46B146A846F0BDEB8AE0210393002341
:105AA40001A8AA78C900018001210271437100F0A4
:105AB4003DFC280000F0B6FBE2E7C04600001150B0
:105AC400003011505C2900209823F0B54646D64694
