:020000041000EA
:1000000000B5324B212058609868022188439860DF
:10001000D860186158612E4B002199600221596106
:100020000121F02299502B49196001219960352056
:1000300000F044F80222904214D00621196600F024
:1000400034F8196E01211966002018661A6600F04E
:100050002CF8196E196E196E052000F02FF8012189
:100060000842F9D1002199601B49196000215960AB
:100070001A491B48016001219960EB211966A021F2
:10008000196600F012F800219960164914480160C1
:100090000121996001BC002800D000471248134993
:1000A000086003C880F30888084703B5996A0420EC
:1000B0000142FBD001200142F8D103BD02B5186610
:1000C0001866FFF7F2FF186E186E02BD00000240BE
:1000D000000000180000070000035F00212200005C
:1000E000F4000018222000A00001001008ED00E03C
:1000F00000000000000000000000000074B24E7A12
:1001000000200420F7010010CB010010CD010010E9
:10011000C9010010C9010010C9010010C901001077
:10012000C9010010C9010010C9010010CF01001061
:10013000C9010010C9010010D1010010D301001045
:10014000C1010010C1010010C1010010C101001067
:10015000C1010010C1010010C1010010C101001057
:10016000C1010010C1010010C1010010C101001047
:10017000C1010010C1010010C1010010C101001037
:10018000C1010010C1010010C1010010C101001027
:10019000C1010010C1010010C1010010C101001017
:1001A000C1010010C1010010C1010010C101001007
:1001B000C1010010C1010010C1010010C1010010F7
:1001C000EFF30580103800BE00BE00BE00BE00BECA
:1001D00000BE00BEF2EB8871D8640010F864001015
:1001E0003802001090A31AE71E481F49086006C88D
:1001F00081F3088810471D480068002801D019487D
:10020000F3E70DA40ECC002902D000F012F8F9E7B4
:100210001749184A002000E001C19142FCD116495B
:100220008847164988471649884700BEFDE701C937
:1002300001C29A42FBD37047F8640010C00000204E
:10024000F8080020306D0010000004200000042099
:10025000306D001000100420001004200000000089
:10026000704700000000000008ED00E0000000D032
:10027000F8080020281F0020D14D0010D1020010E6
:10028000C94D0010F8B5C04610B5064C2378002BB8
:1002900007D1054B002B02D0044800E000BF01232A
:1002A000237010BD780A0020000000000C560010DA
:1002B000044B10B5002B03D00349044800E000BFF5
:1002C00010BDC046000000007C0A00200C56001043
:1002D000F0B5CE46474680B58BB001F0F1FC052461
:1002E0000125280020404042284001F01FFD6420E5
:1002F00001F08CFD013CF4D2002001F017FD334EDB
:10030000334B344A310002200093334B01F0BCF9E7
:1003100001F0E4FC040001F0FBFC304902F03CFD7C
:10032000230031002E4A0090022001F0ADF908218F
:1003300003A801F0D7FC071E21D0002105AB102235
:1003400006A89846059103F095FB0B236B449C4649
:10035000244B4546994603AC67444A46032128008E
:10036000237804F0F3FCBC4203D001340235A045ED
:10037000F3D14346310002201B4A01F085F900F019
:1003800041F81A4800F04EF8194800F04BF81948A7
:1003900000F048F8184800F045F800F089F83100FE
:1003A0000300164A022001F06FF901F0A5F901F0EF
:1003B00079FC31000220124A01F066F901F088FA56
:1003C00000200BB0C0BCB946B046F0BD2C560010A2
:1003D000345600101C5600101056001040420F00FA
:1003E00040560010B0560010585600108C570010A0
:1003F000D8570010AC580010FC590010645600107B
:1004000084560010802210B50021044803F032FB0E
:100410000022034B00201A6010BDC0468C1C002037
:10042000780C0020F8B55746DE464E464546E0B506
:10043000071E35D00568002D32D01B4B9A461B682D
:1004400098461F2B29D8002B15D0184B99461C0015
:1004500043469B009B464E465E4402E00434B44251
:100460000DD023682900186804F00AFF0028F5D190
:10047000032040420BE00D4B994600239B46434628
:100480005246013313604B465A4600209F50F0BC41
:10049000BB46B246A946A046F8BD0D204042F6E74D
:1004A00005204042F3E7C046780C00208C1C002059
:1004B000014B18687047C046780C0020044B1B683D
:1004C000834203D9034B8000C05870470020FCE7EB
:1004D000780C00208C1C00206C230022C2540020C9
:1004E0007047C046F0B54F464646D6460B219F237F
:1004F000C0B584B069440B70384B03AE1B8807004D
:10050000338000234068B37000285FD0037B002B4A
:100510005CD003685C69002C58D00323012200934F
:100520003300A0478046002834D17278337894464F
:10053000B2781804924662461202104352461043A3
:1005400048D0274A904245D0482201213865B95405
:10055000293AFA64E132BA6580225201FA65214AE9
:10056000002491462049214D0C3205E055680134A4
:10057000002D16D011680C328842F7D138003F2286
:100580002900083004F0EEFE63001C19A4004C445E
:10059000A3687B65404604B0E0BCBA46B146A846B5
:1005A000F0BD524638000192624640210092083068
:1005B0000F4A04F0CBFBB3781A00103A102A03D884
:1005C00001229A407A65E5E77D65E3E705235B4212
:1005D0009846DFE70C235B429846DBE71057001094
:1005E000FFFFFF00145700101540EF009456001055
:1005F0009C560010F0B5DE4657464E464546E0B5DF
:1006000089B00D00040001F005FCFA2200230290DD
:10061000039128000021920003F0C6F904AB9C4628
:100620000E2705230F2567443B70FF236544894649
:1006300005902B70002C38D0FE3B984604339B4627
:10064000FA339A460EE001F0E5FB029A039B801A0A
:100650009941894521D9642001F0D4FB5B463B7068
:1006600053462B70237B002B1FD023685E69002E1E
:100670001BD043460122009339002B002000B047D5
:10068000002803D142462B781A42DCD109B0F0BCD5
:10069000BB46B246A946A046F0BD894502D1059B9E
:1006A0008342D8D802204042F0E705204042EDE7DF
:1006B000F0B5DE4657464E464546E0B58246894689
:1006C000934685B0002B2FD00024984603AD4346B7
:1006D0001E1B80235B019E4200D91E004B46032255
:1006E0001B192A701A0C6A70EB701A0A5346586864
:1006F0005B46AA701B1900281ED0027B002A1BD063
:1007000002685769002F17D0042229000096B847C5
:1007100000280AD10E9BA419002B03D041462000CB
:100720000F9A9847A045D2D8002005B0F0BCBB4630
:10073000B246A946A046F0BD05204042F5E7C046B6
:10074000F0B54E4657464546DE46E0B581468A46F8
:1007500090461E00C3B0002B2ED080235B000024E7
:100760009B46002711E043462A00191902A804F00D
:1007700063FD002822D14C9B6419002B03D031006B
:1007800020004D9A9847A64216D9351B5D4501D9E0
:1007900080256D0053464846191901972B00009794
:1007A00002AAFFF785FF0028DDD043B0F0BCBB46AE
:1007B000B246A946A046F0BD0020F6E70A20404216
:1007C000F3E7C046F0B54E464546DE465746E0B52F
:1007D000C7B08046994602910392002B5FD0002358
:1007E00000269B4605AD09E0509B3619002B03D02F
:1007F00049463000519A9847B14550D9029BF718A5
:1008000043469C6D3800210002F0C6FA4B46641A3C
:100810009B1B9C4200D91C004346586806232B7042
:1008200000280DD0037B002B0AD003685B699A4631
:10083000002B05D05B460122009329000023D047FE
:1008400002232B703B0C6B703B0AAB70039B2200A6
:10085000991906A8EF7003F013F94346586805ADDF
:10086000221D00281DD0037B002B1AD003685F696E
:10087000002F16D05B46290000930023B8470028BC
:1008800006D1434608495868FFF7B4FE0028ABD0AC
:1008900047B0F0BCBB46B246A946A046F0BD00201A
:1008A000F6E705204042F3E7102700000F21AB23B5
:1008B00030B5040085B0406869440B7000280AD048
:1008C000037B002B07D003685D69002D03D0002354
:1008D00001220093A847012001F098FA6C2301221D
:1008E0000020E25405B030BDF0B5DE4657464E4616
:1008F0004546E0B58B46060090469A4685B00029ED
:1009000002D1436D934251D94346002503AC002BDD
:100910000FD149E0F36D9C4653466544002B06D049
:100920004046A84500D9280041460E9AD047A84520
:100930003AD95B465F19062370682370002865D09A
:10094000037B002B65D003685B699946002B60D060
:100950000023012200932100C847202370682370E0
:100960003B0C63703B0AA370E77000284ED0037BFA
:10097000002B4BD003685F69002F47D0002304226F
:1009800021000093B847002805D127497068FFF778
:1009900031FE0028BED00700380005B0F0BCBB46D1
:1009A000B246A946A046F0BD0027F5E706234068F9
:1009B00003AC237000281DD0037B002B31D00368CB
:1009C0005D69002D2DD00023009101222100A84750
:1009D000C7237068237000280CD0037B002B09D03C
:1009E00003685D69002D05D00023012221000093DA
:1009F000A84770680C49FFF7FDFD53460700002B20
:100A0000CAD0414640460E9AD047C5E705277F42E7
:100A1000C2E7202323703B0C63703B0AA370E7708E
:100A2000A5E7C7232370D8E760EA00006C23012202
:100A3000C25400207047C0466C230022C2540020DC
:100A40007047C0460023F0B50500406893B001939D
:100A500000281AD0037B002B17D003689C69002C58
:100A600013D0102201AB02A9A047071E0DD1019E91
:100A7000002E0AD0002102AA13681C00503C072C4B
:100A800008D9013104328E42F6D10C277F4238005A
:100A900013B0F0BD012180200B4A000251703F319C
:100AA000AA6602241370516090604822AC546865B5
:100AB00028002D3AEA642B65044AA965E9650830E7
:100AC00004F044F9E3E7C0467C0C0020B85700105E
:100AD000F0B5DE4657464E464546E0B599B004911E
:100AE000816E059202930391002B6BD000239B46ED
:100AF00001339A468146039B049C5D685C4429004F
:100B0000200002F049F95A46029B9B1A6A1A904645
:100B10009A4200D99846039B5B78002B5AD004AACE
:100B2000230A547302241373059907AB424618191C
:100B3000594402F0A5FF4B46220058684244002861
:100B40004CD0037B002B49D003685D69002D45D054
:100B5000002307A90093A847002834D14B465C68BE
:100B600001F058F906000F001BE01E4B98421ED8FA
:100B7000002C12D0237B002B0FD023685D69002D41
:100B80000BD0534604AA944600930B230022002165
:100B900020006344A847002809D0FA20400001F053
:100BA00031F901F037F9801BB9410029DDD0229BD2
:100BB000C344002B03D05846239A02999847029BBE
:100BC0005B4598D8002019B0F0BCBB46B246A94698
:100BD000A046F0BD04AB1C730124A5E705204042EC
:100BE000F1E7C0464FC30000F0B54E46DE4657461B
:100BF0004546E0B51E00836E87B08246934699460F
:100C00000391002E31D00024B04605AF1FE01A0A30
:100C10003A7002227B70534658685B461B190028C5
:100C20002BD0017B002928D001684E69002E24D0EA
:100C300039000095B047002818D1109B6419002B8B
:100C400003D041462000119A9847A0450DD942464D
:100C5000039B151B1B19202D00D920254A465278CD
:100C6000002AD4D101223B70D5E7002007B0F0BCA8
:100C7000BB46B246A946A046F0BD05204042F5E776
:100C8000F0B54E46DE4657464546E0B593B01E1ECB
:100C90001C9B81468A46934698462AD0002400270A
:100CA00011E05B462A00191902A804F0C5FA0028D1
:100CB00021D143466419002B03D0310020001D9A36
:100CC000C047A64215D9351B402D00D940255346B3
:100CD0004846191901972B00009702AAFFF784FFD5
:100CE0000028DED013B0F0BCBB46B246A946A046F1
:100CF000F0BD0020F6E70A204042F3E76C23012212
:100D0000C25400207047C046836E10B50121040014
:100D1000187801F043F86C2300220020E25410BD43
:100D2000F0B55746DE464E464546E0B581468A4612
:100D300093461F0085B0002B3DD008230024984621
:100D4000002603AD01970EE00E9B002B07D0FF237A
:100D5000234204D120000F9A01990E9B9847019BD2
:100D60000134A34226D0534601271B19590848468F
:100D70003B4047465B4240688AB23B40203302AF6B
:100D8000120A3B707A7004232A00B9704068390057
:100D9000FE702E6001F016F85A46EB78125D9A420A
:100DA000D2D00A20404205B0F0BCBB46B246A946AC
:100DB000A046F0BD1F000E9B002B05D03800390067
:100DC0000F9A98470020EEE70020ECE7F0B5574671
:100DD000DE464E464546E0B589B00592826E070074
:100DE000049102930392002B54D000239B460133BD
:100DF00000259A465946039B029A5B68561A9E4202
:100E000000D91E00002E24D005990024594488469C
:100E10000821002240238946019606E053464946B0
:100E200023405B420B406208403341467868095DCD
:100E300006AE40683370B2700423F17075703100F3
:100E400007AA079500F0BEFF019B0134A342E5D13C
:100E50001E007A68049B50684C225B4406A95B081C
:100E60000A709AB2120A4A708B70CD70042307AAD6
:100E7000079500F0A7FF052000F0C8FF129BB344C0
:100E8000002B04D05846139A0299129B9847029B54
:100E90005B45AFD8002009B0F0BCBB46B246A946BE
:100EA000A046F0BDF0B557464E46DE464546E0B595
:100EB00081468A4616001F0085B0002B34D00123DE
:100EC0009B46073300249846002501975346584611
:100ED0001B195908034040465B42034048468AB20A
:100EE000406802AF2033120A3B707A700423B97055
:100EF00040683900FD7003AA039500F063FF3319C1
:100F0000002B01D0FB7933550E9B002B07D0FF231C
:100F1000234204D120000F9A01990E9B9847019B10
:100F20000134A342D2D11F000E9B002B03D0390005
:100F300038000F9A9847002005B0F0BCBB46B24677
:100F4000A946A046F0BDC04610B51C00436882B05B
:100F50006A465868AC2313702C3B537000236946D3
:100F60009370D370019301AA043300F02BFF0A2081
:100F700000F04CFF002C03D001210120049AA0476F
:100F8000002002B010BDC046F0B5DE4657464E46C2
:100F90004546E0B50500634F85B000218766387887
:100FA00000F0FCFE1E2000F031FF6B6802AC5868B8
:100FB000AC2323709A46593B63709946002303AED5
:100FC000A370E3700393984632000433210000F0CD
:100FD000F9FEF378532B20D00121387800F0DEFEA3
:100FE000142000F013FF0021387800F0D7FE1E20F7
:100FF00000F00CFF6B6832005868534623704B4674
:10100000637043462100A370E3700393043300F040
:10101000D9FEF378532B00D07CE06B68320058681F
:1010200030239B462370002321009A466370A370EF
:10103000E3700393043300F0C5FEF3783200984662
:101040006B68210058685B46237053466370013318
:10105000A3705346E3700393043300F0B3FEF378B8
:10106000210099466B68320058685B4623705346EE
:1010700063700233A3705346E3700393043300F0AC
:10108000A1FE434619044B46F0781B021943014365
:1010900040D0254B99423DD0482304222965EA548B
:1010A000224B0026EB64224A224B234C05E05C686D
:1010B0000136002C16D01A6814339142F7D128005B
:1010C0003F222100083004F04DF9B3009E191B4B5C
:1010D000B6009E19B368F26800206B65AA657A6055
:1010E000BB6010E02E004B46083601900093402173
:1010F00043463000124A03F029FE402300206C656D
:10110000AB657B60BC6005B0F0BCBB46B246A9468F
:10111000A046F0BD3878012100F040FE0C2040428E
:10112000F1E7C046E80B0020FFFFFF001F060000AC
:1011300002951E00EC58001004580010D8580010FA
:1011400010580010102330B585B002AC1943130AB3
:101150006270A370130C120E2170E37022710028CC
:101160000BD0037B002B08D003685D69002D04D0F1
:101170000023052221000093A84705B030BDC046DA
:1011800030B50D000B211C2385B069440B7000287D
:1011900011D0037B002B0ED003685C69002C0AD0B1
:1011A00004230122009303ABA047002801D1039B35
:1011B0002B6005B030BD05204042FAE7F0B50027AE
:1011C000324E04008666406887B00397002820D01E
:1011D000037B002B50D002689569002D4CD003ABE7
:1011E00002A90122A847042304A960680B704C33AC
:1011F0004F708F70CF700B7100280AD0037B002BCB
:1012000007D003685D69002D03D0002305220093F9
:10121000A8470A2000F0FAFD00211D4A6068FFF788
:1012200091FF012000F0F2FD656804212800194AB1
:10123000FFF788FF28003100FFF7A2FF051E18D135
:101240008023802180228902D2001B054820736000
:10125000B1603368F2600526236526542938E064BE
:1012600020006165A265E26540210B4A083003F069
:101270006DFD280007B0F0BD042204A90A70002209
:101280004A708A70CA7050320A71B8E70C1D00208B
:101290005200002300ED00E0DC590010F0B5CE460E
:1012A000474680B583B00D00040000F0B3FDFA227C
:1012B000002306000F0028000021920002F074FBBA
:1012C000012380460D0099460FE00F4A04212000BB
:1012D000FFF738FF200001A9FFF752FF4A46019BA4
:1012E00013420BD0642000F08DFD00F093FD801BB5
:1012F000B9418D42E9D801D18045E6D803B0C0BCE0
:10130000B946B046F0BDC0460C200240F0B5574685
:101310004E464546DE46E0B583B01F1E0C9B814617
:101320008A4698462CD0FF23140000259B464B4646
:101330005E68534604213000EA18FFF703FF3000CF
:1013400001A9FFF71DFF002822D1791B042900D92C
:101350000421002301980600DA00D640E654013348
:101360009942F8D143460435002B06D05B462B4208
:1013700003D1390028000D9AC0470434AF42D6D8B3
:101380004346002B0BD0380039000D9AC04700208F
:1013900003B0F0BCBB46B246A946A046F0BD002053
:1013A000F6E7C046F0B54E4657464546DE46E0B540
:1013B00081468A4690461E00C3B0002B2ED0802363
:1013C0005B0000249B46002711E043462A001919C0
:1013D00002A803F031FF002822D14C9B6419002B96
:1013E00003D0310020004D9A9847A64216D9351BEC
:1013F0005D4501D980256D0053464846191901976E
:101400002B00009702AAFFF781FF0028DDD043B030
:10141000F0BCBB46B246A946A046F0BD0020F6E7A8
:101420000A204042F3E7C04670B545680400280032
:101430000421064AFFF786FE28000C21044AFFF724
:1014400081FE6C2300220020E25470BDF0ED00E02C
:1014500000005FA070B54568040028000421084A18
:10146000FFF770FE28000C21064AFFF76BFE0A20EA
:1014700000F0CCFC6C2301220020E25470BDC04679
:10148000F0ED00E003005FA0F8B5DE4645465746A4
:101490004E4644689846836EE0B58A46160004219D
:1014A000304A050020009B46FFF74CFE0C2120002F
:1014B0002D4AFFF747FE042120002A4AFFF742FE8B
:1014C0000C212000294AFFF73DFE002E38D00024D1
:1014D000A1466F6804213800254AFFF733FE380023
:1014E00002220C21FFF72EFE6F6804213800214AEA
:1014F000D144FFF727FE38004A460C21FFF722FEB1
:101500006F68042138001A4AFFF71CFE42220C21A2
:101510003800FFF717FEFA2168688900FFF7BEFE62
:101520005B46DB689C4643466444002B06D0300093
:10153000A64200D9200031000A9AC047A642C7D867
:101540006C68042120000A4AFFF7FCFD20000022FD
:101550000C21FFF7F7FD0020F0BCBB46B246A946C0
:10156000A046F8BD0420024023016745AB89EFCDBA
:101570001020024014200240F8B5DE464E46454693
:1015800057469846E0B50A9B456899460B9B040070
:101590008A46280004211600354A9B46FFF7D2FDF3
:1015A0000C212800334AFFF7CDFD04212800304AE2
:1015B000FFF7C8FD0C2128002F4AFFF7C3FD434663
:1015C000002B3CD0002529E073781B021F4300212B
:1015D0002A4A6068FFF7B6FD534604215A1960682D
:1015E000FFF7B0FD3A000C216068FFF7ABFD642106
:1015F0006068FFF753FE0021214A6068FFF7A2FDF3
:101600004B46002B06D0FF232B4203D15A464146BE
:101610002800C84702350236A84510D9676804215A
:101620003800184AFFF78EFD380001220C21FFF721
:1016300089FD6B1C37784345C6D3BFB2C7E76468E2
:10164000042120000F4AFFF77DFD00220C2120001D
:10165000FFF778FD4B46002B03D05A4641464046E3
:10166000C8470020F0BCBB46B246A946A046F8BD1C
:101670000420024023016745AB89EFCD51000023D0
:1016800052000023102002400CB4F0B504000E00FC
:1016900083B0042822D800F0C1FBFA21890005009C
:1016A00001F07AFB0F00FA212800890001F074FB99
:1016B0003A0001000C4803F075FD0C4BA400E25801
:1016C0000B4B0C48E158330003F06CFD09A9089856
:1016D000019103F025FD0A2003F0FAFC03B0F0BCF1
:1016E00008BC02B01847C046285A0010AC5A001077
:1016F000985A0010385A00100022074B00201A6038
:10170000064B074A19001360103120339360516073
:101710000322044B1A607047880C00206C5D001097
:10172000F80B0020F40B002000280AD0064A1368AA
:101730001F2B06D8591C1160044A9B0098500020AA
:1017400070470D204042FBE7F40B0020F80B00200F
:101750000FB400B583B004A901C9019103F0E0FC06
:1017600003B008BC04B0184710B5054A054906483F
:10177000FFF7EEFF05480649FFF7EAFF002010BD1E
:101780003456001010560010C05A0010F85A0010BD
:10179000CC5A0010F8B50C48FFF7DAFF0B4E33684F
:1017A000002B0BD000240A4D0A4F08CD380006CB81
:1017B000FFF7CEFF33680134A342F6D80648FFF79F
:1017C000C7FF0020F8BDC046005B0010F40B0020EE
:1017D000F80B00201C5B0010AC5D0010F0B5CE468D
:1017E000474680B5D1B00100FF2210A803F0BAFD32
:1017F00068464021FF2300224018C25402780300AB
:10180000002A54D06D4601200026441E01E05A787B
:101810000133202AFBD0092AF9D0002A45D0222AF8
:1018200033D004002B6001E0092A06D019005A7851
:101830000133002A0BD0202AF6D11E708B1C1A7897
:10184000002A04D0013004351128DED110241D4BAC
:101850001B689946002B2CD0009B002698461A4DF9
:1018600003E0013604354E4525D02F6840463968DF
:1018700003F006FD0028F4D169462000FB68984774
:1018800051B0C0BCB946B046F0BD5A1C5B780400EC
:101890002A60002B04D1DAE753780132002BD6D02E
:1018A000222BF9D1531C1670C9E7002CCFD1002090
:1018B000E6E7009B984605484146FFF749FF0620AA
:1018C0004042DDE7F40B0020F80B0020285B0010FD
:1018D000F0B5DE464E4645465746E0B5384CC1B0F9
:1018E0002000FFF735FF3748FFF732FF364937480A
:1018F000FFF72EFF3648FFF72BFF3648FFF728FF8C
:101900003548FFF725FF2000FFF722FF334D002465
:10191000280003F047FC324B00269946314B324FEA
:101920009B460F23984603F0C1FB431CFBD00D28B8
:1019300011D00A280FD0082819D07F2817D00328E3
:101940003AD0FE2CEFD8631C9A466B46185503F02C
:10195000BFFB5446E7E70A2003F0BAFB6B461E556F
:10196000002C0BD1280003F01DFC0024DBE7002C29
:10197000D9D05846013C03F015FCD4E71B78002B66
:10198000F0D03C68002C09D04346601E184000028D
:101990006946484403F074FC002809D040462040C2
:1019A0000002FF2269464844013403F0DBFC3C603E
:1019B0006846FFF713FFD5E70C4803F097FBD1E724
:1019C000AC5D0010585B001034560010E45B001052
:1019D000145C00104C5C0010845C0010105D001062
:1019E0008C0C0020205D0010880C0020245D00106D
:1019F000F0B5D6464F4646461D48C0B5FFF7A8FE8F
:101A00001C48FFF7A5FE002398461B4B08259A4665
:101A10001A4B1B4F99461B4E2C0041465046FFF770
:101A200097FE103C05E030000134FFF791FEAC4218
:101A300009D0210008316F2CF5D838000134FFF7A8
:101A400087FEAC42F5D14846FFF782FE01239C4653
:101A5000E044434610342500082BDDD14846FFF70B
:101A600077FE0020E0BCBA46B146A846F0BDC046AD
:101A70009C5D0010B05D0010E85D0010AC5D0010D2
:101A8000F45D0010F05D001010B50448FFF760FE33
:101A9000642000F0BBF900F041F9C046FC5D001085
:101AA00070B50C00022800DC78E0486803F0B8FB51
:101AB000A4680500C6B23C49200003F0E1FB002801
:101AC00030D02000394903F0DBFB00281AD0200079
:101AD000374903F0D5FB002846D02378692B31D154
:101AE00063786E2B2ED1A378002B2BD101220021FD
:101AF000300000F025F9FF212E482940FFF728FE8D
:101B000000200EE000220121300000F019F9002130
:101B1000300000F043F9FF2127482940FFF718FE65
:101B2000002070BD00220121300000F009F90121E0
:101B3000300000F033F9FF2120482940FFF708FE6C
:101B40000020EEE720001E4903F09AFB00281DD17B
:101B500000220121300000F0F3F8FF21194829404C
:101B6000FFF7F6FD0020DCE700210122300000F045
:101B7000E7F8300000F01CF9FF21294000280BD1C4
:101B8000114A1248FFF7E4FD0020CAE7104821007F
:101B9000FFF7DEFD0020C4E70E4AF2E70E48FFF72C
:101BA000D7FD05204042BCE74C5E0010685E001087
:101BB000805E0010985E00106C5E0010545E001095
:101BC000AC5E0010B05E00101C5E0010885E00105D
:101BD000C85E0010145E0010205E001070B516483C
:101BE00082B0FFF7B5FD00F079F801001348FFF768
:101BF000AFFD00F08DF8124901F0CEF80100114858
:101C0000FFF7A6FD0821684600F06CF805000E48B5
:101C1000FFF79EFD002D09D06C460C4E651921780A
:101C20003000013403F0BEFAAC42F8D10848FFF7A7
:101C30008FFD002002B070BDE05E0010F85E001065
:101C400040420F000C5F0010245F0010B0560010DF
:101C5000FC5A001070B50F48FFF77AFDFEF728FC1C
:101C6000050001000C48FFF773FD002D0DD0002486
:101C70000A4E2000FEF722FC21000379026801349D
:101C80003000FFF765FDA542F3D10548FFF760FD81
:101C9000002070BD345F0010545F0010705F0010B2
:101CA000AC5D001070B5054C250050352000103497
:101CB000FFF73AFDAC42F9D170BDC0463C60001060
:101CC00010B503F0EFF9192000F0D0F8D0238022EE
:101CD0001B06920400205A629A6110BD00487047AA
:101CE0008C60001070B50C0082B00500684603F0EF
:101CF0006FFA2600082C00D90826002C04D03200E8
:101D00006946280001F0BCFE300002B070BDC0463C
:101D100010B5052000F032FE10BDC04600220021A3
:101D2000002010B500F080FE30BFFDE7D0238022F8
:101D30001B069204002801D05A6170479A61FCE7A3
:101D400070B504000E0015001D2824D800F08EF890
:101D50000123D022A3401206012E0BD09362012D45
:101D60000BD0022D10D020000022002100F066F8D8
:101D7000002070BD5362012DF3D12000002201210B
:101D800000F05CF80020F4E720000122002100F0C0
:101D900055F80020EDE705204042EAE70123D02274
:101DA00083401206012901D1536170479361FCE71A
:101DB0000122D02382401B065B6813405A1E9341C8
:101DC000D8B2704710B5002818D0002B16D00029C3
:101DD0000CD00068002A04D003F0E6FB00242000A9
:101DE00010BD1A0003F0D8FB0024F8E70024002AF5
:101DF000F5D00021006803F0AFFBF0E70524644252
:101E0000EDE7C04610B500F0BDFC10BD10B500F008
:101E100005FC10BD10B500F0ABFC10BD10B500F016
:101E2000A7FC002905D0FA220023920000F0F2FF5F
:101E300010BDFA21890000F0AFFFF9E70A4B8000DE
:101E40009C464B1E99416044C900002A01D00423DE
:101E5000194303684B400C21194080235B019C46C9
:101E6000604401607047C04604C001400123D02295
:101E700083404021120693629361094A83009A18B5
:101E80001268C0005140C0220A4006498C46634493
:101E90001A60054B9C460523604443607047C0466A
:101EA00004C0014004D00140004001400FB400B51F
:101EB000084883B003F01AF9049B002B07D005A94A
:101EC0001800019102F066FF034803F00FF90120AA
:101ED00002F078FF94600010AC5D001070B5EFF375
:101EE000108C72B60D4D2B68002BFCD0BFF35F8FAA
:101EF0000724CB08C618C05C01230C40A3401C007B
:101F00000440034207D103433370BFF35F8F2C605B
:101F10008CF3108870BD1000FFF7C8FF2C0100D0B3
:101F2000044A1078431CDBB2172B00D9102313701E
:101F30007047C046780400200021044B044ABFF3D8
:101F40005F8F02C39342FAD17047C046000100D0B0
:101F5000800100D0054B064A1360064A13605360A7
:101F60009360D36013615361936170478080808078
:101F700000E400E004E400E01F2318401E3B83401F
:101F8000002905D0C021044A49005350136070470E
:101F9000802201498B50FAE700E100E070B50D00A6
:101FA000EFF3108672B60F4A1368002BFCD0BFF314
:101FB0005F8F0D4B10309B6884001B590B4A934276
:101FC00003D09D4201D000F0CBFD074B9B681D5113
:101FD000BFF35F8FBFF35F8F0022024B1A6086F35F
:101FE000108870BD240100D000ED00E0C101001098
:101FF000024B9C46614489000160704740000034F8
:10200000F8B5124D124E2C00FF27B5420DD31BE040
:10201000FFF786FF01002800FFF7EAFFA780BFF364
:102020005F8F0834B4420FD225002368002BEFD114
:10203000FFF776FF01002800FFF7DAFF2771BFF3F3
:102040005F8F0834B442EFD3F8BDC046F0080020DB
:10205000F80800200A4B1968EFF3108072B60A687E
:10206000002AFCD0BFF35F8F1B68BFF35F8F002295
:102070001A6080F3108840BF002000217047C046DE
:10208000201F0020F0B5DE4657464E464546E0B5D7
:1020900085B0EFF30582032313409A0011000392E9
:1020A000B44A5258904601229A409146B24B1A6067
:1020B0004B46B2484363434608229B5E9A46002B38
:1020C0003EDA43469B881BB2002B00DBA2E043466E
:1020D0009B79002B00D0F4E0434608241C5F002CC1
:1020E00024DB42465269630094461B19DB006344BB
:1020F0009C68DD68631C01D16B1C0DD09F4803995F
:1021000084466144826A0B69A61A9B1A9E4215D3C3
:102110004A46036A1A4211D0984800F021FB241A5B
:102120008D41002D02DCC3D1002CC1D040BF05B0D1
:10213000F0BCBB46B246A946A046F0BD0C61EBE739
:10214000424652695B0093465344DB009B445B4626
:102150009E68DF6800F004FB801BB9410029B0DBFA
:10216000002F00DAE1E05B46854A1B69934200D10B
:10217000D4E041465A460820085E528800041043C5
:102180005A465169984704000D0023002B4300D1A3
:10219000CBE0002D00DBE4E0361BAF4134003D0016
:1021A0005B469C60DD600021595E002900DA88E70B
:1021B00043465B6922009C462B0048004018C00043
:1021C00060448668C768921BBB41002B00DA78E741
:1021D0004346664602000094019519810CE07B009D
:1021E000DB19DB00F318009801999C68DD68001B7F
:1021F000A941002904DB1A000023D75E002FEEDA84
:102200005B461F805346138043469B881BB2002BBE
:1022100000DA5CE743461A69EFF3108172B613687F
:10222000002BFCD0BFF35F8F43469B8842461BB216
:102230009A4601235B4293801369BFF35F8F0022AC
:102240001A6081F310885346002B00DA3FE74346BB
:102250005B699C46082343449B4653465F004346C4
:102260005744FF0008229A5E67445E46BC68FD68DA
:10227000002A19DB3B000094019567469C4604E068
:102280001E000023F25E002A0BDB00980199530028
:102290009B18DB00FB189C68DD68001BA941002926
:1022A000EEDA6346BC461F005346338000217B5E56
:1022B0003A809A46002BD0DA43469B79002B00D116
:1022C0000AE7002342469371434646460821595E79
:1022D00008364B1C00D129E747468C46556902E079
:1022E00006004B1C17D04B005B18DB00E8180A00F7
:1022F000E95E43881BB2002BF2DA01235B42DC1754
:102300008360C4606245ECD031803B899446038091
:102310003A814B1CE7D1B8466446E0E65B465C690F
:10232000200023699847002821D15B4642461B883C
:1023300013811269EFF3108372B611680029FCD083
:10234000BFF35F8F4246594652880A804246514643
:1023500051801269BFF35F8F0021116083F31088F1
:10236000AFE6064800F0FCF924184D4118E765680F
:1023700024680AE7D00B00203C700540004005406F
:102380008520001070B51D4C2369002B04D00A2154
:102390001B48FFF72DFE70BD1A4D0321280000F0E9
:1023A000D5F9E560FFF7BCFD174B62699C46032336
:1023B0002370D0231B061B6860446370134B80009E
:1023C000A36001235B42A38010336380104B206124
:1023D000138001339BB218320F2BF9D10D4B032020
:1023E000DC600824074B0C491C62FFF7D7FD012174
:1023F0000320FFF7C1FD094B1C60C8E77C040020E7
:10240000201F00200040054040000034FFFF100066
:10241000FFFF0000D00B0020852000103860054031
:1024200070B5C646010000B50469EFF3108C72B6B2
:1024300020680028FCD0BFF35F8F02200D5E486942
:102440006C0080466419E4004444002D01DB2088C0
:1024500048800869BFF35F8F002606608CF3108800
:10246000002D30DBE36063880598013320615B0455
:1024700006985B0CA26060611A1C002B21D090B200
:102480002B04628018430A69EFF3108672B6136852
:10249000002BFCD0BFF35F8F8B8823808D800B696E
:1024A000BFF35F8F00221A6086F310880B78013229
:1024B0009A40CB6805498C4663441A6040BCB046DC
:1024C00070BD0122DBE701204042F7E73C2000001D
:1024D00010B543890A14934233DD53009B184269B7
:1024E000DB00944604696344EFF3108C72B62268F3
:1024F000002AFCD0BFF35F8F5A88090494B2090CFC
:102500008A4208D00369BFF35F8F00221A608CF300
:102510001088002010BD8022120214435C80012329
:1025200002698371BFF35F8F002111608CF3108803
:10253000054902788C469340C268012062441360CA
:10254000E8E70020E6E7C0463C200000F0B50400C4
:102550000D0006267642F717C64636196F4100B5BC
:1025600082B08F4214D811D000F002F932003B0043
:10257000121A8B41002B15DC002B44D020002900BF
:1025800000F05EF902B080BCB846F0BD8642EBD9DF
:102590000026002700F0ECF832003B00121A8B41B5
:1025A000002BE9DD00F0E4F832003B00121A8B4109
:1025B000002B0ADB00230193144B320000931448D4
:1025C0003B00FFF72DFF0028D8DBB0460026BC46B5
:1025D000104A114F7B6A9C4504D8B96A4145CDD257
:1025E0009C45CBD11168EFF3108072B60B68002BBD
:1025F000FCD0BFF35F8F1368BFF35F8F1E6080F363
:10260000108820BFE6E7002AB8D0CBE7552000109D
:102610007C040020201F00200040054070B506000B
:1026200000F0A6F8FA2204000D000023300000217B
:10263000920001F0B9F900196941002902DBFFF7A6
:1026400085FF70BD012001494042F8E7FFFFFF7F91
:10265000F0B5CE46474680B504000D0083B0EFF3D9
:102660000587002F0DD0364A0020536A8B4203D3D2
:10267000926A0130A24250D303B0C0BCB946B04602
:10268000F0BD304B9846DB689946434648461E7875
:1026900000F066F80B00494602000436B600715897
:1026A00020008E1A2900801A99418F4211DC0ED029
:1026B00020BF234A0020536AAB42DDD3926A013027
:1026C000A242D9D2E81A421E9041C0B2D4E7864253
:1026D000EED900F04DF822002B00121A8B41002B8E
:1026E00020DB00230193184B2200009340462B006F
:1026F000FFF796FE011E15DD114B2E005A6A95421A
:102700001CD89B6AA34217D34046FFF7E1FE0C4A50
:102710000020536A9E42AFD8D0E7581A421E90411B
:10272000C0B2A9E7064A0020536AAB42A4D3926A1A
:102730000120A242A0D2C5E79542E5D120BFE3E740
:10274000004005407C0400205520001010B5024ACE
:102750000248FFF7C3FB10BDB0600010940B0020CF
:102760000300416A0A00986A596A8A42FAD170479E
:10277000034B596A0A00986A596A9142FAD1704724
:102780000040054070B5002806DB174A916A936A3D
:102790005B1A9842FBD870BD04000025124A536AA8
:1027A0001900966A536A8B42FAD130001900241836
:1027B0004D41AB4202D814D1A64212D901230124C3
:1027C0006442E5175B4208494A6A9A42FCD3E2D167
:1027D000054A02E0516A9942DDD1916AA142F9D3DA
:1027E000D9E72B00EFE7C0460040054070B5040074
:1027F0000D00124A536A1900966A536A8B42FAD145
:102800003000190024184D41AB4211D80ED02B00D6
:102810000A494A6A9A42FCD307D1084A02E0516A3F
:10282000994202D1916AA142F9D370BDA642EED974
:10283000012301246442E5175B42E9E700400540BB
:10284000064A536A9942FCD807D1044B02E05A6AFF
:10285000914202D19A6A8242F9D370470040054002
:10286000F0B54F469946344BDE4646469C464400FA
:102870002418A400C0B5644416006368089A8B4607
:10288000934200D26260031FDBB29846012B2ED91F
:10289000C0238022294F85009B0179591201E3183A
:1028A0001A6000291AD1226876017240E02680233E
:1028B000164042465B01E3181E60012A2ED9802390
:1028C00080229B01E31812011A60089B63604B464B
:1028D0007B51E0BCBB46B146A846F0BD786900F02C
:1028E0005BFA431C5800C0180338FDD2DBE75B4697
:1028F000012BCDD1C02303229B01E3181A60023AB9
:10290000A3681A42FCD0E0232268760156401E409C
:1029100080235B01E318094F1E6085005A46216839
:10292000514003220A401A6001235A469340A2688C
:102930001342FCD0C3E7C04600800040980B002043
:10294000F0B583B005000E0018000899170000F0DC
:1029500023FA089A0300140231003A002800009478
:10296000FFF77EFF03B0F0BD10B5802482B0640095
:102970000094FFF775FF02B010BDC046014B800008
:10298000C0587047980B0020F8B5040020481D007F
:1029900017000E0000F000FA0100380000F0FCF90A
:1029A000069B29041B0319432368002B1EDB194BCC
:1029B000194DE21853425A4180235B019C46120391
:1029C000164B62441A60164B1A6017002B689F431F
:1029D000FBD1144B2660E2182123A060136023680A
:1029E000002BFCDA0823E1601360F8BD3F23226866
:1029F0001340B342DBD1A3681B051B0D8342D6D124
:102A0000EE22E368D20213408B42D0D1EDE7C046FC
:102A1000001BB7000040FDBF08C0004000E00040C0
:102A200000F000400430000010B5140080221B4B61
:102A3000D2051A6000281AD00123194A1843194BED
:102A4000DA61194A42401A62596298628022134B35
:102A5000D2051A601549164A1160E022D2041A60A4
:102A6000002C07D18022134B12061A6010BD0D4BAB
:102A7000D861EBE763011B1B9A0080231219120136
:102A80005B049A4200D30C4A0C4B1A60054B5A6007
:102A90008022084BD2051A60E8E7C04600B0054026
:102AA000D3C007B0008005402D3FF84FFCFF010068
:102AB0000820014000A00540FFFFFF00CC0B0020D4
:102AC0008023024A9B000B43D3627047008005407D
:102AD000142310B50100188804331B88984710BDD3
:102AE000162310B50100188802331B88984710BDC3
:102AF000F8B54746CE4680B50F1E19D01423994627
:102B0000043304000025012698464B4618884346A6
:102B100021681B88984701C4431E984101354042F3
:102B20000640AF42F1D13000C0BCB946B046F8BD56
:102B30000126F8E7AA23064A1B0113608D235B00D8
:102B4000D3600449044B19605368002BFCDA7047CA
:102B50000040024000B0FA00006002407047C046EA
:102B600010B50148FFF7A2F9D460001070B5074D09
:102B7000074EB54209D20024013E761BB60808CDA7
:102B8000984723000134B342F9D170BDC8550010F5
:102B900004560010054B064A06491A60064A074BC0
:102BA0001A6010000B689843FBD1704700E00040AA
:102BB000BFCDFBFE08C00040FE7F3C0000F000409F
:102BC000044BDB6C002B03D18022034BD2021A6032
:102BD0007047C046000011504C201150044A054B6C
:102BE0001A60054A1368DB018033FBD17047C04689
:102BF000FFFFFF0100F0004008C000404022034BEF
:102C00009A675A671A67DA667047C04600F0014053
:102C100010B5FFF791F910BD70B50C490C4D0D4E74
:102C20006D1AAC102200302C00D9302230009200F6
:102C300000F026FFBC2D05D8074A7519013404C5DC
:102C4000302CFBD1054B9E6070BDC04600010010CA
:102C5000C001001000000020C101001000ED00E0E4
:102C6000002310B5294C82B0A367FFF763FF012250
:102C7000274B1A60636C012BFCD10322254B1A6091
:102C8000224A936B012BFCD1013300930121224A8C
:102C900022480433FFF778FE052301210093204AE0
:102CA0002048FFF771FE0022022104201E4BFFF78F
:102CB0005BFE0022012105201C4BFFF755FE002280
:102CC000002107201A4BFFF74FFE002200210820A9
:102CD000174BFFF749FE8023DB0000930022002101
:102CE0000920134BFFF72CFE0022104B0021062079
:102CF000FFF73AFE0420FFF741FE0E4900F04CF8C2
:102D000001000020FFF7DCFE02B010BD0080004093
:102D10003CB0004030B00040002F685900800240B5
:102D2000008C864700C00240001BB7004059730763
:102D3000006CDC0240420F0001480421014B18479F
:102D4000A0040020F12A0010124A936F9B0815D2AC
:102D50009066D166002905D0FFE7FFE7FFE7516FD6
:102D6000106F704704B580210906C2175140002832
:102D700000D0C84302F008FC002104BDF0B5146E79
:102D8000556E576F166FFFF7E3FF1466556657676A
:102D90001667F0BD000000D0114A936F9B0813D254
:102DA00010665166002905D0FFE7FFE7FFE7516F86
:102DB000106F704704B5002801D00020C04302F016
:102DC000E3FB002104BDC046F0B5146E556E576F8D
:102DD000166FFFF7E5FF1466556657671667F0BD77
:102DE000000000D094464A4A926F9208624601D28F
:102DF00028E0C046F0B5464E346E756E776F366F7C
:102E000000F020F89446424A1466556657671667E4
:102E10006246F0BD94463E4A926F9208624601D2E5
:102E200054E0C046F0B53A4E346E756E776F366F2B
:102E300000F04CF89446364A146655665767166794
:102E40006246F0BD002B24DB11D000293EDA00B52C
:102E5000C943404200D1013100F038F8C943404233
:102E600000D10131DB43524200D1013300BD002AC1
:102E7000EBD1002801D1002905D00020C90FC907D6
:102E800001D1C043410800B502F076FB00220023C7
:102E900000BD00B500290ADBDB43524200D10133FB
:102EA00000F014F8C943404200D1013100BDC943CC
:102EB000404200D10131DB43524200D1013300F0E6
:102EC00005F8DB43524200D1013300BD002923D174
:102ED000002B18D1002A0CD0BC460D4F38667A66FC
:102EE00000210023FFE7FFE7FFE77A6F386F6746AF
:102EF0007047002801D00748010000B502F03CFBF4
:102F00000022002300BD02000B00002000217047BA
:102F1000000000D0FFFFFFFF002B00D0BFE0130C2C
:102F200028D1002AE7D080B4114F39667A66FFE7CE
:102F3000FFE730B4040C7B6F396F1B0423433B66FF
:102F40007A66FFE7FFE7FFE7C04684B27B6F3D6F1D
:102F50001B0423433B667A66FFE7FFE7C046002376
:102F60002C042D0C7A6F386F00196941B0BC704782
:102F7000000000D0F0B594460025140E01D11202D5
:102F80000835140F01D112010435940F01D19200BC
:102F90000235D40F01D152000135D40B0134254F35
:102FA0007C66254C3C660E0C93B2FFE7FFE7FFE71B
:102FB0003C6F6643360C7703BE467343DF0B5B04FE
:102FC000C01AB941130C7343DB18C91ACE08664303
:102FD000360CB64493B273431F0F1B01C01AB9419C
:102FE000130C73431F0B1B05C01AB941860D8F02CA
:102FF0003E436643360C092D24DB520A7243801A85
:103000007703460A6643360C16235B1BDE40DF401F
:10301000BF1964466643821B7046043506330100BF
:10302000D940A840C01900D30131A24206D20023E2
:10303000F0BD0000000000D0FFFFFFFF121B0130B9
:10304000F3D3F1E709277F1BFE406446A2B2724327
:10305000801A00D20139220C7243130C1204821A16
:1030600099410B007046043513370100F940A84020
:10307000801900D30131002B02D1A2420AD2F0BD47
:10308000013000D30131121BFAD2013BF8D1A24228
:1030900000D2F0BD013000D30131121BF7E7F0B5CB
:1030A0001C0C00D080E00CB400251C0A04D11B02CB
:1030B000160E3343120208351C0B04D11B01160FE8
:1030C0003343120104359C0B04D19B00960F33430C
:1030D00092000235DC0B02D192185B4101351C00D5
:1030E000971864410134464F7C66464C3C660E0C92
:1030F000FFE7FFE7FFE7C0463C6F6643360C770308
:10310000BE4697B27743C01B00D20139C01B00D224
:1031100001399FB27743C91BC91B170C77437E0443
:10312000FF0B801BB941CE086643360C0C2D33DBF8
:10313000B644120B1F053A431B0B97B27743C01BD3
:1031400000D201399FB27743C91B170C77433E0465
:103150003F0C801BB941860D8F023E4366432927F1
:103160007F1BFE400C3D7746AF40BF1930BCA2B27A
:10317000ABB272437343801A9941220C7243130C11
:103180001204801A994102000B000137001BA9416B
:10319000F9D2781E0021F0BD0C277F1BFE40774638
:1031A0007F0BAF40FF19E0E700245D1C07D0144FF0
:1031B0007D663966FFE7FFE7FFE7FFE73C6F95B203
:1031C0009EB265436643401BB141150C1E0C65431E
:1031D000664336042F0C3E432D04401BB1419942F7
:1031E00004D202000B0020000021F0BD01D190426A
:1031F000F7D3801A994101349942F2D3F6E70000DF
:10320000000000D0FFFFFFFF48404140484018B495
:103210001B4B5B68FC46019308BD04DF7B34001048
:1032200018B4174B1B68FC46019308BD00DF8534BA
:1032300000109446134A926F920809D2624618B45D
:103240000F4BDB68FC46019308BD0CDF3D370010D7
:103250000C4AF0B5146E556E576F166F6246FFF745
:10326000EEFF084A1466556657671667F0BD18B436
:10327000034B9B68FC46019308BD08DFE135001055
:103280001C1D0020000000D0FFB5504042405040BF
:1032900059404B40594000E0FFB5154F4C00640DBC
:1032A00003D0BC4204D10C0314D80020090D090539
:1032B0005C00640D03D0BC4204D11C030AD8002278
:1032C0001B0D1B0501264B4009D44B4003D58B42F7
:1032D00000D18242FFBD9942FCD19042FFBD0B4319
:1032E000DB1803431343F5D0C9434918FFBD000061
:1032F000FF07000000B5FFF7CFFF804100BDC046CB
:1033000000B5FFF7C9FF01D9002000BD012000BDB5
:1033100000B5FFF7B9FF01D9002000BD012000BDB5
:1033200000B5FFF7B1FF804100BD012040054A0014
:10333000121804D85A00121801D800207047012032
:10334000704700000021002805D17047C117484090
:10335000401AFAD0C90713B5064B1B6898470CBC36
:10336000441CA2401005120B0349091B090519430F
:10337000114310BD1C1E00201F04000010B54C009E
:10338000620D8023D218DB00D21A5B057E2A10DD85
:103390009E3A13DACC170903490819435242D14027
:1033A000640001341532202A05DAD0400843604316
:1033B00010BD002010BD0846604310BDC80FC018E6
:1033C000013810BD18B4044B5B6AFC46019308BD7C
:1033D00024DFED38001000001C1D0020132370B501
:1033E0001C78012C19D014DD1148FFF779FB060079
:1033F0001048FFF775FB104D80223100280000F0C7
:103400003FFB022C06D00D48FFF762FB0C4B186007
:1034100070BD094D0B4AAA64F5E7074D094A29001A
:103420002B00803104C38B42FCD1AA64EBE7C04679
:1034300053440000534600001C1D00204C33000084
:103440001C1E00204934001007B5604601880A0A96
:103450000230DF2AFAD1C9B2820804D30288408838
:103460000004104300E00068014A5050039007BD7B
:103470001C1D00200FB403BC0CBCF0B50124E407F4
:10348000634000E0F0B50C0DCF0F661E3605891BBA
:10349000640503D3C943404200D30131640D03D016
:1034A000661CF60A07D0E41B00207F00791C890700
:1034B0008912803C24031D0DDF0F6E1E36059B1BF9
:1034C0006D0503D3DB43524200D301336D0D03D0AE
:1034D0006E1CF60A07D0ED1B00227F007B1C9B07A9
:1034E0009B12803D2D032F1B661B58D4A446202E13
:1034F00046DA20371400BC401D00BD40F240334185
:103500002A4380185941CB0F05D0C943C04300223C
:1035100064425041514162464D0D28D10D0D07D1F5
:1035200000281FD0241940414941013A0D0DF9D01E
:10353000640006D3013000D30131002C01D14008D2
:103540004000013A0BD4941CE40A04D11205114442
:10355000DB071944F0BDD907204B194300E0D90718
:103560000020F0BD0029DDD1002CDBD1F0BD0132FF
:10357000C6074008CD0728434908002EE1D0D9E707
:103580003C2E29DA203E40371400BC4000D00124F4
:10359000F24014431A00BB401C43D317ACE7AC46BF
:1035A000202F08DA20360400B4400D00B540F84062
:1035B00039412843A5E73C2F0CDA203F4036040070
:1035C000B44000D00124F84004430800B1400C434B
:1035D000C117EAE710001900002494E70000F07F0B
:1035E000F0B50C0D661E3605891BE60A6405640DF0
:1035F00002D0651CED0A04D0002001210905803CA1
:103600002403A4461C0D671E3F05DB1BE70A640567
:10361000640D02D0651CED0A04D0002201231B05B5
:10362000803C24037740644497B484B296B27443D8
:10363000070C7E43150C6F4380B26843361802D3E3
:10364000012000043F183004350C00197D418446E8
:1036500088B29AB250430C0C62431F0C7C438EB26A
:103660007E43921902D301263604A4191604170CBE
:103670003618674101BC81B29AB25143040C6243CF
:103680001B0C5C4380B25843121802D30120000483
:1036900024181004130C401863412D185E410020BB
:1036A000474106BC88B293B258430C0C6343120CDA
:1036B000544389B251435B1802D3012109046418B1
:1036C00019041A0C091862416D185641002047412F
:1036D00018BCF902720D1143F0026A0D1043ED029D
:1036E0000A0D03D16D1940414941013B124E9B1B0C
:1036F0007600B3420ED26D0007D30130002671412F
:103700006646354301D1400840001B05C918E4074F
:103710002144F0BD0BDA013306D1013004D101316F
:103720004F0D01D04908F2E7E1070020F0BD013656
:1037300031050020EBE70000FF030000F0B51C0D91
:10374000671E3F05DB1BE70A6405640D02D0661C9B
:10375000F60A04D0002201231B05803C2403D02557
:103760002D060026F6432E661E096E66CE0FF6194C
:10377000B44649004F0D02D07E1CF60A03D000204B
:103780000021403F3F033E1BB600B444013F7F058C
:10379000C91B49082E6F013676089C02950D2543FA
:1037A0007543ED137543AD1301356D10F603761BAC
:1037B0000CB4CC02450D2C43A2B2B3B25A43270C31
:1037C0007B43350C6F43A4B26C431B1902D3012415
:1037D00024043F191C041D0CA4187D4124196D41BB
:1037E000009A91B2ACB26143170C7C432B0C5F433F
:1037F00092B25A43A41802D301221204BF18220421
:10380000230C52187B41019C6C431B19520ED901A9
:103810000A434401A01A81B2B2B2514303145A437D
:10382000360C734387B27743D617D21900277E41EF
:1038300036049B191704160C7F185E417316ED1899
:10384000F301002680337541A90F06D16400690A8F
:10385000E8055B0A184309D22FE004229444803320
:103860007541A90AA8059B0A184326D3404149413E
:103870002404009A019B0D005543641B4343E41A42
:1038800095B286B27543170C7E43030C5F4392B228
:103890005A43B61802D301221204BF183204330C63
:1038A00052197B4152429C41002C02D4002201302B
:1038B00051414008CA071043490802B06246D70781
:1038C0009210084BD218084B9A4203D2120589185D
:1038D000C919F0BD0020002A01DC3900F0BD013318
:1038E0001905F5E7FD030000FE070000002200B502
:1038F000203200F004F8080000BD000000220B1583
:103900000AD410B5944600F031F81414013400DAEA
:103910000021CB17144C204700200021704762443F
:10392000343A0CD40C2A07DA0400914090405242F9
:103930002032D440214310BDD843D94310BD20329A
:1039400007D40C469440524220321141D0402043CB
:1039500010BD0800C917203203D452422032104152
:1039600010BD1800190010BD1F3900100A0DCC0F32
:10397000531E1B05C91A520503D3C943404200D345
:103980000131520D03D0531CDB0A07D0121B00205B
:103990006400611C89078912803A1203014BD21A14
:1039A00070470000FF03000051434343C9188C4691
:1039B000110C83B24B4310B4040C614392B280B239
:1039C000504362431C041B0C001910BC59411304E2
:1039D000120CC0185141614470470000132310B508
:1039E00010481C78FFF77CF80100012C0AD003DD99
:1039F00080220D4800F044F80C48FFF769F80C4BA2
:103A0000186010BD084C5422200000F039F8230043
:103A10002100084A5433803104C38B42FCD1226216
:103A2000E261E9E753460000201E00204C3300000D
:103A30001C1E0020393A001007B5604601880A0AAA
:103A40000230DF2AFAD1C9B2820804D30288408842
:103A50000004104300E00068014A5050039007BD85
:103A6000201E002001480421014B1847B00400200B
:103A7000F12A0010014B1B6818470000B004002019
:103A8000014B5B6818470000B00400209A4200D246
:103A9000885470477047C046F8B557464E4645466D
:103AA000DE46E0B599460A9B07009A460D9B88467C
:103AB000934615000B9E9B0710D10C9B9E420DD286
:103AC0009D1B14000E005D4422004B460134310062
:103AD0002020B847A542F7D1B0460B9E002E27D034
:103AE000444675195346AA1B013E985D21004B467A
:103AF000B847002EF6D123002C0098460D9B9B075B
:103B00000FD55B46E51A0C9BAB420AD94646984650
:103B100022004B46310020200135B847013445458D
:103B2000F6D32000F0BCBB46B246A946A046F8BD7D
:103B30002C00E3E7F0B54F464646D646C0B584B004
:103B400098460EAB1B78129F994694460D9C109B8D
:103B5000119EBA0725D4002E4BD19C4200D3C1E060
:103B600001223A4092461F2C00D9BAE00C9A551E09
:103B7000302201E0202C03D001342A55A342F9D889
:103B80005246002A0DD0A6420BD9202C44D00C9AC4
:103B9000551E302201E0202C3ED001342A55B4427B
:103BA000F9D1FA064ED57A053FD4002C39D10F9BB6
:103BB000102B00D17BE00F9B022B00D18CE0302337
:103BC0000C9A012413704B46002B40D02D230C9AE5
:103BD000135501340C9B62460093039743460296AB
:103BE0000194FFF759FF04B0E0BCBA46B146A846BD
:103BF000F0BD012215003D40AA463A4230D04A4667
:103C0000002A02D10C323A4200D0013E9C42BAD284
:103C10001F2CABD9202E28D92024FA06DAD57A0514
:103C200003D4A3422ED0A6422CD00F9B102B34D00D
:103C30000F9B022B20D0202CCCD030220C9B1B19A8
:103C40001A700134202CC5D04B46002BBED17B0707
:103C50000DD43B07BED520230C9A13550134B9E788
:103C60009C429ED21F2C00D880E7202499E72B236A
:103C70000C9A13550134ADE7202CABD00C9B1B19CB
:103C800001343BE0631E012C91D00F9A102A2BD0F7
:103C90000F9A022A2FD01C00CFE7BB060ED4202C8F
:103CA00098D00C9B1A19013478231370C3E7BB0614
:103CB0000DD478230C9A01241370BEE7202C00D178
:103CC00088E758220C9B1B191A700134B3E758235C
:103CD0000C9A01241370B0E70C9A6033012413701E
:103CE000ABE7202400265CE7023CBA06E9D40C9A34
:103CF00012191C00D8E70C9A9246534462221A709B
:103D000099E7C046F0B54E46DE4657464546E0B513
:103D100093B09B461CAB20CB89461B7892461E9ED7
:103D200008900993002D08D11023219A00249A436A
:103D30001300219A2193520524D4219A61239206DB
:103D400039D402AA94460A2252421F279046DBB277
:103D500000246744984408E03033DBB201343B551B
:103D6000B5420FD3202C0DD0050031002800FFF7FD
:103D700013F8CBB20929EFD94344DBB201343B55E8
:103D8000B542EFD2219B52460693209B49460593AC
:103D90001F9B08980493099B039602930AAB009318
:103DA00001945B46FFF7C6FE13B0F0BCBB46B246BB
:103DB000A946A046F0BD4123C3E7C046F0B54E4634
:103DC0004546DE465746E0B595B09B4620AB1B788E
:103DD0001E9F0B93229B1F9D99463B008046239E6E
:103DE00009910A922B4308D1269A10339A43130063
:103DF000269A0024269352052CD4269A61239206F3
:103E000042D40A2252429246DBB200249A440EE087
:103E10001F21303204ABD2B201345B181A55AE42C6
:103E200018D8AE4232D0202C14D0070065464A463E
:103E3000330038002900FEF7EDFFD2B28C46092A84
:103E4000E6D91F21524404ABD2B201345B181A5593
:103E5000AE42E6D9269B40460693259B0A9A0593D7
:103E6000249B099904934B4603930B9B0194029363
:103E70000CAB00935B46FFF75DFE15B0F0BCBB4694
:103E8000B246A946A046F0BD4123BAE7B945CAD912
:103E9000E0E7C046F0B5DE4657464E464546E0B53B
:103EA00091B09A461A9B8B4699461B9B0790984661
:103EB000089243464A4648464146FFF736FA0028EC
:103EC00000D0A5E0012248464146D74B5242FFF7B9
:103ED00027FA002800D09BE0012248464146D34BF8
:103EE0005242FFF707FA002800D091E00022002399
:103EF00048464146FFF7FEF9002800D08BE14E46C8
:103F0000474680231E9ADB001A400D921E9A1A42E1
:103F100001D106231C9333000A960B973B4300D034
:103F20008FE01E9B1B0500D563E100230424099349
:103F30001D9B00259C4200D21D1B02231E9A1A4085
:103F40000C921E9A134203D0634263415B421D40B0
:103F5000099B002B07D00A9A0B9B30003900FFF712
:103F600068F906000F000022002348464146FFF78B
:103F7000C1F9002803D0802109067B181F001E9A72
:103F8000AB4B009601971340079E04931C9B089A25
:103F900003950293594653463000904600F078F955
:103FA0000500002C45D01E9B2A0098061F23C01731
:103FB0009843594653466530B0470523059300237F
:103FC000099903930A330293CB0F0193CB17C818B7
:103FD00058406F1C013C534600903A00594630004F
:103FE0000494FFF78FFE0C9B0500002B21D0434665
:103FF000C41A1D9BA3421CD937001E002A00534639
:10400000594620200134B8470135B442F6D310E0B8
:104010001E9B4A4604931D9B594603931C9B07987D
:1040200002934346009201935346089A00F030F9F8
:104030000500280011B0F0BCBB46B246A946A04618
:10404000F0BD7C4B78009C46400D6044FFF77EF944
:10405000794A7A4BFFF70BF9794A7A4BFFF7E0F888
:10406000794A3B031B0B1A4304000D000A98110008
:10407000764B0022FFF7CBF8754A764BFFF7F7F83F
:1040800002000B0020002900FFF7CAF8FFF776F9BD
:104090000990FFF75BF9704A704B04000D00FFF7C1
:1040A000E6F800226E4BFFF7BBF8FFF767F96D4AA1
:1040B0006D4B29000C902000FFF7D9F804000C98F4
:1040C0000D00FFF743F9694A694BFFF7D0F802008A
:1040D0000B0020002900FFF79AF802000B000400F3
:1040E0000D00FFF7C4F822002B000A900B9120006E
:1040F0002900FFF795F800220E900F910A980B996E
:104100005C4BFFF796F800225B4BFFF789F8020043
:104110000B000A980B99FFF78CF80022574BFFF71A
:104120007FF802000B000A980B99FFF782F80A90BB
:104130000B91802122002B000020C905FFF767F8B2
:1041400002000B000A980B99FFF76AF802000B00B7
:104150000E980F99FFF76DF800223B4BFFF760F8C0
:10416000474B0C9C9C46644423050022FFF77FF8D4
:1041700032003B0004000D00FFF7D2F800282CD1DC
:104180000A940B95C624099B63339C42A4411E9B51
:10419000644204341B0500D4CAE60A9A0B9B110042
:1041A000194328D030003900364A374BFFF7B0F8B2
:1041B000002807D0002230003900344BFFF79AF86E
:1041C000002818D11C9B002B00D1B1E60D9B5A1E74
:1041D00093411C9AD31A1C93AAE6099B0022013B27
:1041E000099320002900244BFFF723F80A900B9134
:1041F000C8E7002309931C9A099B9A4211DDD01A43
:10420000431E1C9380231E9ADB001A4300230024C4
:104210001E9209938CE680231B0643444E461F00E2
:104220006FE600231C93EDE7FFFFEF7FFFFFEFFF3B
:10423000FFF7FFFF01FCFFFFFB799F501344D33FC3
:10424000B3C8608B288AC63F0000F03F0000F83FEB
:1042500061436F63A787D23F71A379094F930A40E7
:104260000000E03F1655B5BBB16B0240EF39FAFED6
:10427000422EE63F00002C40000024400000184081
:10428000FF0300002D431CEBE2361A3F80842E41D1
:10429000F0B54E46DE4657464546E0B597B09946DE
:1042A000209E219F229B8346984607910C923B00BB
:1042B000320030003900FFF738F8002800D0A9E1BB
:1042C000012230003900CA4B5242FFF713F8002890
:1042D00000D0E1E0012230003900C64B5242FFF726
:1042E0001FF8002800D0B7E0002230003900C24B90
:1042F000FFF716F8002800D099E0002230003900BE
:10430000BE4BFEF7F7FF002800D090E0002200230C
:1043100030003900FEF7EEFF002800D0B1E00023A6
:104320000D93249B5B0501D40623984608AB9C465D
:104330001722002430234146624404E0013413551F
:104340000139202C01D00929F8D8884630003900DD
:10435000FFF714F84346DA00A94B05009B181A68CA
:104360005B6808920993FEF7F1FF02000B00300032
:104370003900FEF74CFF089A099BFEF778FF0A9078
:104380000B91FFF71FF88246FEF7DCFF02000B00DF
:104390000A980B99FEF73BFF00229A4B0A900B916B
:1043A000FEF7BEFF002800D1C0E001239C46E24496
:1043B0005046FEF7C7FF02000B0008980999FEF768
:1043C0009FFF002802D000239A4601354346002B68
:1043D0006AD008AB17269C4608956644554614E0FB
:1043E00001235B4243440A2128009A46FEF7D4FC8D
:1043F000013430313719397028000A21FEF7CCFC1E
:10440000092D00D8D0E0D0460500202CE8D10EAB15
:1044100098460323249A1340012B00D196E02023D1
:10442000249A01930392239A434602921EE0249B0E
:1044300058460493239B00960197039343460C9A96
:10444000029307994B46FFF725FD17B0F0BCBB461A
:10445000B246A946A046F0BD249B5B070ED40322BA
:10446000694B249901920391239902910093584634
:104470004B460C9A0799FFF70FFBE6E70422634BC4
:10448000EFE73B00320000200021FEF7C0FE0123D1
:1044900006000F000D9344E7249B0393239B029394
:1044A000042301935A4BE1E72800FEF74FFF020077
:1044B0000B0030003900FEF7AAFE524B0022060026
:1044C0000F00FEF717FF0EAB984600280AD1002216
:1044D000300039004B4BFEF723FF002802D1EB07D9
:1044E00000D50135202C94D008AA94461723280023
:1044F00063440A2101341E19FEF726FC30312800DE
:1045000031700A21FEF720FC051EEBD10323249A0B
:104510001340012B1BD0202C00D180E70D9B002BDA
:1045200035D02D224146631C0A5579E700220A98AE
:104530000B99344BFEF7DEFE002800D046E75346C9
:10454000002B51D101239C46E2443FE72024239BCA
:10455000002BE0D00D9B002B03D1249A0C33134287
:1045600002D0239B013B2393239BA342D3D908ABC7
:104570009C46172230236244202C00D14FE7239918
:10458000013413558C42C6D0202CF8D147E7249B28
:104590005B0724D4249A2300120700D440E720228A
:1045A000414601330A553BE75746089D202C00D170
:1045B0002DE7220030214046002F09D00132B154AE
:1045C000202A00D123E7D3431B191B18002BF5D158
:1045D0000EAB98462E234146541C8B5482E72B2267
:1045E0004146631C0A551BE7DB0700D4EEE6A9E74A
:1045F000FFFFEFFFFFFFEF7F65CDCD4165CDCDC163
:10460000706300100000E03F7461001078610010DA
:1046100084610010249B0393239B02930323019343
:10462000004B23E78061001010B5002800D110BDB9
:1046300000F04EFDFBE7C0460B0010B5002802D08D
:1046400049681B68984710BDF0B55746DE464E4690
:104650004546E0B595B01C001E9B91469B46C84A56
:10466000C84B82460F1E1A6000D1CFE1002320788C
:104670009846002800D1D1E11E005B460B9309E06B
:1046800032004B463900751CD0472E00013420788B
:1046900000284AD02528F3D110239B460C3B98468E
:1046A000023B00229C460134207825000300203B79
:1046B000DBB2102B03D8B4499B00CB589F460300B4
:1046C000303B092B55D9002398462A2864D0002472
:1046D0002E283FD00300683BDBB2122B08D8AB4931
:1046E0009B00CB589F4680235B0068781A430135B6
:1046F0000300253BDBB2532B57D8A5499B00CB5871
:104700009F46012301341A43CEE7634601341A431E
:10471000CAE7434601341A43C6E75B4601341A43ED
:10472000C2E7082301341A43BEE7B0463400C1454E
:1047300003D801235B424B4498464B46424639001E
:104740000020D047200015B0F0BCBB46B246A946B9
:10475000A046F0BD687880230100DB0030391A43A1
:104760006B1C092900D85BE12A2800D168E11D00F3
:10477000B0E7002398460300414688004018013501
:104780004000C0182B780100180030383039092853
:10479000F3D9180088469AE70B9B02CB884600297C
:1047A0000CDB60780B93651C91E7731C9846320014
:1047B0004B463900D04746466C1C68E702210A4345
:1047C00041464942884660780B93651C7FE778280C
:1047D00000D16DE1582800D197E16F2800D158E24F
:1047E000622800D18CE21023110099430B00692844
:1047F00000D0A6E2520500D533E20A220C929A05B7
:1048000000D5FEE1DA0500D55FE25A0600D52BE2BD
:104810000B9A11001A0600D481E204C98C4612B228
:10482000D11750184840614680B20B91059343461A
:1048300004930C9BD20F03940293019200903200D8
:104840004B4639005046FFF75DFA6C1C06001EE728
:1048500080239B0068781A43013549E76878682807
:1048600000D15EE1802301351A4341E768786C2866
:1048700000D15BE180235B001A43013538E746280D
:1048800000D112E107210B9B0492073342468B4370
:104890001900029403920CC95046009201930B91A7
:1048A00032004B463900FFF7F3FC6C1C0600EEE6C5
:1048B0000B9B02CB0B910D93002C00D0C9E00B7821
:1048C0009C46002B00D133E202235B420B9901335B
:1048D000C8180B0002E0984200D12DE1597801334D
:1048E0000029F8D10B995B1A0C9380231100DB008F
:1048F00019400E911A4203D00C9BA34200D90C948C
:104900000223190011400F91134200D154E1604677
:10491000002800D13BE10B9B32009E1B4346AB4677
:10492000B8460E9D57460B93B246260000E0220083
:10493000002D04D0731E002E00D101E11E004B4655
:104940004146541CB8475346185D0028EFD10B9BD5
:104950005D46BA46A346474698460F9B002B00D0BB
:1049600014E10D9B5E466C1C0B9390E6731C9846FD
:1049700032004B4639002520D04746466C1C86E65F
:1049800049460010C80B00208C610010D061001057
:104990001C6200100B9B0394984621231A43193B79
:1049A000049308330293002305924246019308CAF8
:1049B00039009046009332004B465046FFF7A2F96B
:1049C000434606006C1C0B9361E6930700D4BEE0DF
:1049D0000B9B320001CB39009B46C0B24B46D047FF
:1049E0004346741C4644012B00D84DE1A846554669
:1049F00022004B46013439002020A847B442F7D1A9
:104A0000AA465B4645460B936C1C40E6CE4B20788D
:104A10009A4600239846002800D02DE6002486E61A
:104A20000100A00000190133400040181978303807
:104A30000400080030380928F3D908001D0049E6B1
:104A40000B9BA87810CB0235E143C9170C400B93A0
:104A500040E60B9B1B789C46002B00D167E1631E50
:104A600034E7202301009943472904D180231B0107
:104A70001A4302239843452801D120231A430721D2
:104A80000B9B0492073342468B4319000294039216
:104A90000CC95046009201930B9132004B463900ED
:104AA000FFF7F8F96C1C0600F1E520231A43E9E64C
:104AB00010230C930C23110099430B0052052DD4A5
:104AC000692800D19BE6642800D198E6802218006E
:104AD00092001040134200D0E6E0DA0500D512E162
:104AE0000B985A0600D5C8E01A0600D422E104C883
:104AF0001204120C0B900593434604930C9B0394F1
:104B0000029300230092019399E60C23110099432C
:104B100014330B4310210C915205D7D50122934336
:104B2000CEE7C023A8781A430235E1E5C0239B00F5
:104B3000A8781A430235DBE50B9BC31A0C93D4E625
:104B40000B9B5D46BA4693464746984605E7434663
:104B5000012B00D8F3E0741E4444A84655463200A9
:104B60004B46013639002020A847A642F7D1AA4675
:104B700045460B9B220001CB39009846C0B24B46FC
:104B8000D0474346661C0B936C1C80E55E460C9A2E
:104B9000904534D943469B199B1AA8461C0055469C
:104BA00032004B46013639002020A847A642F7D1F3
:104BB000AA46A3464546D4E60C9A531C904500D815
:104BC000BBE043469B199B1A9B465346A2465C4654
:104BD000AB461D0032004B46013639002020A84765
:104BE000A642F7D1434601330C930B9B54461B78E6
:104BF000AA469C465D466046002800D08BE6B34638
:104C0000AFE6082107208C460B9A07328243944472
:104C100005CA0893434607930C9B614604930023FF
:104C20000593D30F0293D317109311930B9106940E
:104C3000109B119C19004140129121005140139189
:104C40001299139AC91AA24113000A000092019303
:104C5000390032004B465046FFF7B0F86C1C060096
:104C600015E50A220C9259E70B9A01CA9446FF22D5
:104C70006146024010000B91D8E504C89446FF221B
:104C800061460B900A4036E75B4626000B936C1C8E
:104C9000FDE408230C9313001A00642800D009E7F0
:104CA0005A0500D4ABE539E70893434607200B9A31
:104CB00007930C9B07328243049300231100069450
:104CC000059302930CC90B91C0E70B9A110004C91C
:104CD000059343468B4604930C9B03940293D30F96
:104CE0000193D317D2185A4000924B463200390034
:104CF0005046FFF707F85B4606000B936C1CC6E4B2
:104D000002230C93C7E70593434604930C9B0B9A2D
:104D100003940293019008CA93460093E5E704C9FF
:104D20008C46D1175018484061460B917EE5002310
:104D30000C93DAE504C80B90DDE60C935BE73400D6
:104D400017E70A220C92A7E7953A00100CB410B5A9
:104D500084B006AC08CC0A00009401000448039417
:104D6000FFF772FC04B010BC08BC02B01847C04684
:104D70008D3A001000B585B0039101210290009397
:104D8000034813004A4202A9FFF75EFC05B000BDCC
:104D90003946001010B5094A0300146884B0002C8D
:104DA00008D0012200910648524203A9A0470120E1
:104DB00004B010BD00F09AF90020F9E7C80B0020FC
:104DC0002946001000BEFDE710B5FFF7FBFFC04607
:104DD00070B5FDF7CBFE074D074EB54209D2002452
:104DE000013E761BB60808CD984723000134B34234
:104DF000F9D170BD045600100C560010030010B518
:104E0000080011001B68984710BDC046F0B5464623
:104E10004F46D6468046C0B50E00171E3FDD4B1EDE
:104E20009946214B0125002400209A460DE04B466F
:104E30001B5D0D3B5A425341325DDBB20A2A0BD057
:104E40002B00013401359F421ADD002CEFD143467F
:104E5000325D1B7D0A2AF3D1002BF1D1A04204DA86
:104E60004346211A1B6830189847434650461B6832
:104E700002219847013428002B0001359F42E4DCD1
:104E8000874204DD4346391A1B6830189847F619E3
:104E9000013E33780D3B5A42534142461375E0BC04
:104EA000BA46B146A846F0BDC063001010B50B006D
:104EB000417D002903D01900FFF7A8FF10BD046849
:104EC00011001800A047F9E7F0B5C646144B0600DC
:104ED0001C6800B5002C19D0031D9846114F02E044
:104EE0002469002C12D02568002DF9D03B68002BD6
:104EF00001D0A342F4D1637D3268002B0BD0200097
:104F00004146FFF783FF2469002CECD10023336076
:104F100080BCB846F0BD11004046A847E0E7C04657
:104F2000C00B0020C40B002070B50C000968050000
:104F3000802904D04B1C23606418257170BD2000AB
:104F4000FFF7C2FF2168F5E7F0B5DE4657464E464B
:104F50004546E0B585B017001C0006000D00FDF7C2
:104F600007FC0023274A12184B41002B46DB264939
:104F700008008A4600F020FB01906B1C03D1300032
:104F800000F0C2F90500002C31D1204B9946204B8E
:104F90001C68002C20D01F4B98460A239B4602E039
:104FA0002469002C18D02368002BF9D043461B68D5
:104FB000002B01D0A342F3D12A0031002000C847C2
:104FC000002FEDD05A4602AB2000DA71D91D012224
:104FD000C8472469002CE6D1019B002B0AD1280088
:104FE00005B0F0BCBB46B246A946A046F0BD0A4B90
:104FF0009946CCE7504600F0B7FAF0E70122074B9C
:105000005242B4E740420F00F0080020FD4D00106E
:10501000C00B0020C40B0020AD4E0010FFFFFF7F2F
:10502000F8B557464E464546DE4698461A4BE0B51B
:105030009A461A4B07000E0093469946184D534660
:105040001C68002C03D115E02469002C12D02B68B9
:10505000002B01D0A342F7D1A368002BF4D031007C
:10506000380098470028EFDDF0BCBB46B246A946A1
:10507000A046F8BD4B465B6A984508D84A46926AF6
:105080005A4501D2984502D002204042ECE7012067
:105090000021FDF7ABFBD2E7C00B0020004005402C
:1050A000C40B002010B500F089F810BD00B5074B07
:1050B00083B001211A685B6801A8FFF7B1FF0028DF
:1050C00001DB6B46187903B000BDC046A860001034
:1050D00010B582B06B4604000022D81D01210123C7
:1050E0000470FFF731FF200002B010BD70B504005E
:1050F00000F00AF901230100050001222000FFF75A
:1051000023FF064B1C68002C06D06368002B00D0E0
:1051100098472469002CF8D1280070BDC00B0020EE
:10512000F0B5A3B004000D00FDF722FB0023184AE0
:1051300012184B41002B27DB164E300000F03CFAD2
:1051400000230700019322002B00134801A9FFF759
:1051500011FE019B0500002B02D001A8FFF7B4FE51
:105160000E4B1C68002C06D06368002B00D09847BB
:105170002469002CF8D1002F02D1280023B0F0BD03
:10518000300000F0F1F9F8E70122054B5242D3E775
:1051900040420F00F0080020294F0010C00B0020F3
:1051A000FFFFFF7F0FB400B583B004A901C90191CF
:1051B000FFF7B6FF03B008BC04B0184700207047E3
:1051C00010B5024800F00CF810BDC046E00B0020FE
:1051D00010B508220149FEF753FC10BDE00B00207A
:1051E00030B5002589B004000922002101A80095EE
:1051F000FEF740FC0922002105A80495FEF73AFCC1
:105200004B236A466846137004A90D2200F09CF9EE
:105210001521082220006944FEF732FC09B030BD98
:1052200010B50A22002100F075F910BD014B186875
:105230007047C046C004002030B5032A0CD90300D3
:105240000B439B0719D103680C68A34215D1043A9C
:1052500004300431032AF6D8551E002A0BD000234F
:1052600003E05A1C9D4206D01300C25CCC5CA242F3
:10527000F7D0101B00E0002030BD551EEFE7C04600
:10528000024670B50A4392072AD11E4DEE0104C8AA
:1052900008C9541B9443344017D0D0B2D9B2401A35
:1052A0002106014310D190B299B2401A2104014362
:1052B0000AD110021902000A090A401A2102014308
:1052C00002D1100E190E401A70BD9A42DFD010BAEA
:1052D00019BA884201D9012070BD0020C04370BDB9
:1052E00002780B7801300131002A09D09A4207D1A7
:1052F00002780B7801300131002A01D09A42EFD0B8
:10530000D01A70BD0101010110B583070AD0030056
:10531000032102E001330B4205D01A78002AF9D1AB
:10532000181A10BD030019680C4A0D4C8A188A43DC
:1053300022420FD15968094A04338A188A4322420B
:1053400008D15968054A04338A188A432242F1D0A9
:1053500000E001331A78002AFBD1E1E7FFFEFEFEF0
:1053600080808080F0B50C00044303000700A40790
:1053700012D1032A10D9144CA44667460D68134C69
:105380001E002C19AC433C421BD10433043A1F00CD
:1053900004313560032AF0D80024BE1806E00D5D04
:1053A000013A3D55B31A0134002D02D0002AF6D13E
:1053B000F0BD0021002AFBD0197001339E42FBD1C1
:1053C000F6E71F00E8E7C04680808080FFFEFEFE13
:1053D000F0B557464E464546DE468246E0B5914614
:1053E00088461E000A000820484F83B013001C782E
:1053F000551C395D2A000842F8D12D2C66D02B2C83
:1054000029D0434B9B4600230193002E2BD0102E16
:1054100064D0370039005846FDF7BEFC2B008C469F
:105420000022002107E0884212D33FD001227943B5
:1054300069181C7801332500303D092D04D9113D30
:10544000192D15D8373C2500AE4219DD002AEADABD
:1054500001225242EDE72C789D1C2D4B9B460023E8
:105460000193002ED3D1302C46D00A270A26D1E74B
:105470002500613D192D03D8573C2500AE42E5DCDF
:10548000002A18DB0198002800D04942484600282D
:1054900004D0002A38D14B4642461A60080003B0B7
:1054A000F0BCBB46B246A946A046F0BDAC45BDDA4D
:1054B00001225242BDE7222251460A604A4659461D
:1054C000002AEBD0013B98465946E4E72C789D1C16
:1054D00080231B069B460123019396E7302C04D1C1
:1054E00020222B789343582B01D0102792E76C7819
:1054F0001027102602358DE720222B789343582B56
:10550000F5D00827082685E78B46DBE7D563001032
:10551000FFFFFF7F130010B5012A09D0242A07D806
:10552000064A14680A0001002000FFF751FF04E05A
:10553000FFF77CFE16230360002010BDC00400208E
:10554000F8B5C0460000000001B40248844601BC22
:10555000604700BF5902002001B40248844601BCE4
:10556000604700BFF103002001B40248844601BC3B
:10557000604700BF9501002001B40248844601BC89
:10558000604700BF6504002001B40248844601BCA6
:10559000604700BF6504002001B40248844601BC96
:1055A000604700BFA503002001B40248844601BC47
:1055B000604700BF3103002001B40248844601BCAB
:1055C000604700BF35010020952B0010C12B001053
:1055D000392D0010653A0010DD330010DD39001060
:1055E000612C0010DD2B0010FD2B0010112C001081
:1055F00001200010192C0010852300105D2B0010D5
:0C560000551F0010C1510010B102001035
:10561000556E6950726F6765720000003D3D3D2018
:10562000257320762573203D3D3D00004D41494EB8
:1056300000000000302E312E302D6D7670000000FD
:10564000506C6174666F726D3A202573204020257E
:105650006C75204D487A0000436869702049443ACF
:10566000202573005265676973746572656420252F
:105670007A752064657669636520647269766572FF
:10568000730000005374617274696E6720434C4963
:105690002E2E2E00573235513136000053504920FE
:1056A000466C61736820253032583A253032583ABA
:1056B00025303258000000007370695F666C6173BA
:1056C00068000000573235513332000057323551EF
:1056D00036340000573235513132380057323551A7
:1056E000323536004744323551363400474432357E
:1056F00051313238000000004154323553463038C1
:10570000310000004D5832354C3634333300000040
:10571000000000001540EF0094560010000020002B
:105720001640EF00C4560010000040001740EF0084
:10573000CC560010000080001840EF00D456001036
:10574000000000011940EF00DC56001000000002CC
:105750001740C800E4560010000080001840C80040
:10576000EC5600100000000101851F00F8560010E3
:1057700000001000172020000457001000008000D7
:10578000000000000000000000000000B8560010FB
:1057900001000000E5040010AD080010D90400105D
:1057A000B1060010C5070010E908001041070010FD
:1057B00000000000000000004932432045455052DF
:1057C0004F4D204030782530325800006932635FF9
:1057D000656570726F6D0000CC570010020000000C
:1057E000450A00102D0A0010390A0010E90B0010BC
:1057F000D10A001000000000810C00100000000021
:105800000000000041546D65676133320000000004
:1058100041565220253032583A253032583A2530F8
:10582000325800006176725F6973700041546D6593
:10583000676133324100000041546D656761333266
:105840003850000041546D65676133323800000004
:1058500041546D65676131363800000041546D6513
:105860006761380041546D6567613438000000009D
:1058700041546D65676131323830000041546D65C7
:105880006761323536300000415474696E793235C3
:1058900000000000415474696E7934350000000046
:1058A000415474696E7938350000000024580010A6
:1058B00004000000890F0010FD0C0010090D0010FD
:1058C000A50E0010CD0D0010490F0010210D001085
:1058D000000000000000000002951E0004580010A7
:1058E00000800000800000000004000087951E007A
:1058F0002C58001000800000800000000004000010
:105900000F951E0038580010008000008000000035
:105910000004000014951E00445800100080000090
:10592000800000000004000006941E005058001083
:1059300000400000800000000002000001931E00F3
:105940005C58001000200000400000000002000031
:1059500005921E0064580010001000004000000076
:105960000001000003971E007058001000000200A4
:10597000000100000010000001981E007C5800107B
:1059800000000400000100000010000008911E004B
:10599000885800100008000020000000800000006F
:1059A00006921E00945800100010000040000000F5
:1059B000000100000B931E00A05800100020000002
:1059C0004000000000020000000000000000000095
:1059D00000000000000000000000000053544D33A0
:1059E000322043505549443A2530386C5800000065
:1059F00073746D33325F737764000000F0590010E8
:105A000005000000BD1100105514001029140010ED
:105A10000D1300107915001089140010A513001043
:105A200000000000000000005B25366C752E25305C
:105A3000336C755D20000000257325731B5B306D92
:105A4000205B25735D2000001B5B39306D0000007A
:105A50001B5B33366D0000001B5B33326D000000B2
:105A60001B5B33336D0000001B5B33316D000000A6
:105A70005452414345000000444542554700000050
:105A8000494E464F200000005741524E2000000072
:105A90004552524F52000000485A0010505A001010
:105AA000585A0010605A0010685A0010705A0010BE
:105AB000785A0010805A0010885A0010905A00102E
:105AC0000A20202573207625730A0000556E69761A
:105AD000657273616C2050726F66657373696F6E67
